:020000040800F2
:10000000805A0024F51B000879D80008E11B00087D
:10001000E11B0008E11B0008E11B000800000000D4
:10002000000000000000000000000000391C000873
:10003000E11B000800000000411F0008B55A00083D
:10004000F91F0008F91F0008F91F0008F91F000830
:10005000F91F0008F91F0008F91F0008F91F000820
:10006000F91F0008F91F0008F91F0008F91F000810
:10007000F91F0008F91F0008F91F0008F91F000800
:10008000F91F0008F91F0008F91F0008F91F0008F0
:10009000F91F0008F91F0008F91F0008F91F0008E0
:1000A000F91F0008F91F0008F91F0008F91F0008D0
:1000B000F91F0008F91F0008F91F0008F91F0008C0
:1000C000F91F0008F91F0008F91F0008F91F0008B0
:1000D000F91F0008F91F0008F91F0008F91F0008A0
:1000E000F91F0008F91F0008F91F0008F91F000890
:1000F000F91F0008F91F0008F91F0008F91F000880
:10010000F91F0008F91F0008F91F0008F91F00086F
:10011000F91F0008F91F0008F91F0008F91F00085F
:10012000F91F0008F91F0008F91F0008F91F00084F
:10013000F91F0008F91F0008F91F0008F91F00083F
:10014000F91F0008F91F0008F91F0008F91F00082F
:10015000F91F0008F91F0008F91F0008F91F00081F
:10016000F91F0008F91F0008F91F0008F91F00080F
:10017000F91F0008F91F0008F91F0008F91F0008FF
:10018000F91F0008F91F0008F91F0008F91F0008EF
:10019000F91F0008F91F0008F91F0008F91F0008DF
:1001A000F91F0008F91F0008F91F0008F91F0008CF
:1001B000F91F0008F91F0008F91F0008F91F0008BF
:1001C000F91F0008F91F0008F91F0008F91F0008AF
:0C01D000F91F0008F91F0008F91F0008C3
:1002000030B490F800F020F007016FF0000C10F00F
:10021000070491F820F040F048804FF000046FF0A0
:100220000700D1E9002391F840F000F1080082FABC
:100230004CF2A4FA8CF283FA4CF3A2FA8CF34BBB87
:10024000D1E9022382FA4CF200F10800A4FA8CF200
:1002500083FA4CF3A2FA8CF3E3B9D1E9042382FACE
:100260004CF200F10800A4FA8CF283FA4CF3A2FAE3
:100270008CF37BB9D1E9062301F1200182FA4CF21B
:1002800000F10800A4FA8CF283FA4CF3A2FA8CF382
:10029000002BC6D0002A04BF04301A4612BAB2FAA4
:1002A00082F200EBD20030BC7047D1E9002304F0A9
:1002B0000305C4F100004FEAC50514F0040F91F8DE
:1002C00040F00CFA05F562EA05021CBF63EA05037B
:1002D00062464FF00004AAE7844641EA000313F0A7
:1002E00003036DD1403A41D351F8043B40F8043B3D
:1002F00051F8043B40F8043B51F8043B40F8043B00
:1003000051F8043B40F8043B51F8043B40F8043BEF
:1003100051F8043B40F8043B51F8043B40F8043BDF
:1003200051F8043B40F8043B51F8043B40F8043BCF
:1003300051F8043B40F8043B51F8043B40F8043BBF
:1003400051F8043B40F8043B51F8043B40F8043BAF
:1003500051F8043B40F8043B51F8043B40F8043B9F
:1003600051F8043B40F8043B403ABDD2303211D33F
:1003700051F8043B40F8043B51F8043B40F8043B7F
:1003800051F8043B40F8043B51F8043B40F8043B6F
:10039000103AEDD20C3205D351F8043B40F8043B3F
:1003A000043AF9D2043208D0D2071CBF11F8013B3D
:1003B00000F8013B01D30B8803806046704700BF03
:1003C000082A13D38B078DD010F003038AD0C3F112
:1003D0000403D21ADB071CBF11F8013B00F8013BF4
:1003E00080D331F8023B20F8023B7BE7043AD9D3B3
:1003F000013A11F8013B00F8013BF9D20B78037088
:100400004B7843708B7883706046704753B94AB914
:10041000002908BF00281CBF4FF0FF314FF0FF300C
:1004200000F00CB8ADF1080C6DE904CE00F008F84E
:10043000DDF804E0DDE9022304B07047704700BF37
:100440002DE9F0478C468E46089E1546044619460F
:10045000002B40F0D080724547D9B2FA82F74FB1F5
:10046000C7F120030EFA07FC20FA03F3BD4043EA6C
:100470000C0CBC404FEA154EA8B2BCFBFEF8230C96
:100480000EFB18CC08FB00F943EA0C43994528D928
:10049000EB1808F1FF3204D2994502D9A8F1020203
:1004A0002B44A3EB0903A4B2B3FBFEFC0EFB1C33ED
:1004B0000CFB00F044EA0344A04214D92C190CF1BF
:1004C000FF3304D2A04202D9ACF102032C44241A17
:1004D00043EA02401EB1FC40002334607360BDE873
:1004E000F0874246DDE76346F1E7002A79D0B2FAA9
:1004F00082F3002B3FD01946C1F1200302FA01F527
:100500002EFA03F20EFA01FE20FA03F343EA0E0379
:100510004FEA154E00FA01F4B2FBFEFCAFB20EFB3F
:100520001C201A0C0CFB07F842EA004290455AD9ED
:10053000AA180CF1FF3004D2904502D9ACF10200A8
:100540002A44A2EB08029BB2B2FBFEFC0EFB1C226B
:100550000CFB07F743EA02439F4246D9EB180CF124
:10056000FF3204D29F4202D9ACF102022B44DB1BC2
:1005700042EA004202E0AEEB020301224FEA154ECE
:10058000AFB2B3FBFEFC200C0EFB1C330CFB07F8D8
:1005900040EA034398452AD9EB180CF1FF3004D206
:1005A000984502D9ACF102002B44A3EB0803A4B296
:1005B000B3FBFEFC0EFB1C330CFB07F744EA0344C1
:1005C000A74216D92C190CF1FF3304D2A74202D945
:1005D000ACF102032C44E41B43EA00400F461146F1
:1005E00078E71F2188E76046ABE76246BFE76046D1
:1005F000DBE76346EFE7734506D916B900210846E5
:100600006DE7C6E9000EF9E7B3FA83F787B97345DA
:1006100001D3824207D8841A6EEB030301209C4663
:100620001EB900215BE73846FAE7C6E9004CF8E757
:10063000C7F1200CBB4022FA0CF51D4320FA0CF147
:100640002EFA0CF30EFA07FE41EA0E014FEA1549A5
:1006500000FA07F4B3FBF9F81FFA85FE09FB18301E
:100660000B0C08FB0EFA43EA00439A4502FA07F224
:1006700040D9EB1808F1FF3004D29A4502D9A8F10D
:1006800002002B44A3EB0A0389B2B3FBF9F809FB80
:10069000183308FB0EFE41EA03418E452CD9691838
:1006A00008F1FF3304D28E4502D9A8F10203294490
:1006B00043EA0040A0FB0298A1EB0E014145CE4663
:1006C000434602D306D14C4504D2B9EB020E68EB87
:1006D00005030138002EA4D0B4EB0E0261EB030138
:1006E00001FA0CFC22FA07F34CEA0303F940C6E9CD
:1006F000003196E74046C5E74346D9E780B485B068
:1007000000AFC7E900013B68FB60FB680933044A9E
:10071000A2FB0323DB0818461437BD4680BC704794
:10072000CDCCCCCC80B584B000AF3B4600221A6063
:100730005A609A600023FB60184B1B6818460AF049
:100740005EFF0346FB60FB68002B03D114480CF0EE
:1007500093FC20E0114B1B683A46002118460BF031
:100760004AF8F860FB68002B0ADAFB685B4218461F
:1007700009F0B6FD034619460A480CF07DFC0AE074
:10078000064B1B6818460BF046F80346064A1360F2
:100790007B68064A13601037BD4680BD58010024AF
:1007A00088510108A4510108F0130024EC1300241F
:1007B00080B588B000AFF860B9607A60FB68D3F8A4
:1007C0000C3503F58023FB610023BB6100237B61B3
:1007D00000233B61304B1A68FB69B3FBF2F101FB6C
:1007E00002F29B1A002B0DD12C4B1B68F9692A4A87
:1007F000126818460AF0EFFF38613B69002B01DAF6
:100800003B6945E0FB68D3F80C257B681A44FB681C
:10081000D3F804319A422DD3FB6893F81835002B96
:1008200014D0FB68D3F80421FB68D3F80C35D31A35
:100830007B617B69C3F18003BB61BA687B69134448
:10084000BA69FF21184609F05DFA13E0FB68D3F896
:100850000421FB68D3F80C35D31A7B617B69C3F59F
:100860008063BB61BA687B691344BA69FF2118468B
:1008700009F048FA094B1868F9697B68BA680AF008
:1008800098FF38613B69002B01DA3B6900E07B6827
:1008900018462037BD4680BDEC13002458010024C3
:1008A00090B589B000AF786007F10C0300221A60A0
:1008B0005A609A60DA600023FB61184BFB60184BAA
:1008C0003B61184B7B617B68BB6107F10C031946E8
:1008D00015480BF0CBFAF861FB69002B0ADAFB69CB
:1008E0005B42184609F0FCFC034619460F480CF021
:1008F000C3FB0FE0FB69002B0CDD0B480BF040FC49
:10090000044609480BF046FC03461A4621460848AF
:100910000CF0B2FB00BF2437BD4690BD2FB80008D5
:100920006DB80008B1070008B80E0024C8510108CE
:10093000DC51010880B584B000AF0023FB602A4B76
:100940001B68BB60BB687B60BB6803F07F43B3F18F
:10095000006F04D0254926480CF08EFB40E072B6AB
:1009600000BF09E0234AFB6820334FF0FF3142F813
:100970002310FB680133FB60FB68072BF2D90023CF
:10098000FB6009E01B4AFB6860334FF0FF3142F81F
:100990002310FB680133FB60FB68072BF2D9164B71
:1009A00000221A60144B00225A60134B00229A60F6
:1009B00005F06CF905F0D6F84FF000631B6803F5FD
:1009C00080233B603B6883F3088800BF62B600BFAA
:1009D000BFF34F8F00BFBFF36F8F00BF7B68984797
:1009E0001037BD4680BD00BF0400040800000408A5
:1009F0000452010800E100E010E000E080B582B0A0
:100A000000AF154B1B687B6014480CF035FB144895
:100A10000CF032FB134914480CF02EFB4FF0006130
:100A200012480CF029FB124912480CF025FB7B6898
:100A300003F07F43B3F1006F01D10F4B00E00F4B88
:100A400019460F480CF018FB0E480CF015FB00BFC0
:100A50000837BD4680BD00BF0400040828520108C5
:100A6000645201087C520108A4520108B4520108E2
:100A700000000408D0520108EC520108FC520108A1
:100A80000C5301082453010880B500AF06480CF050
:100A9000F3FA06480CF0F0FA05480CF0EDFA0548B8
:100AA0000CF0EAFA00BF80BD6053010894530108BE
:100AB000C05301083452010880B582B000AF03462C
:100AC0003960FB71FB79322B18D0322B19DC312BBA
:100AD0000BD0312B15DC0A2B01D00D2B11D1FFF7D8
:100AE000D3FF3B6800221A700CE008480CF0C4FAEF
:100AF0000748FFF7D5FEFFF7C7FF03E0FFF71AFF30
:100B000000E000BF00BF0837BD4680BDEC530108C0
:100B1000080200242DE9B04F00AF0AF0E4FD154BA8
:100B2000D3E90023B0EB020861EB0309B8F57A7F43
:100B300079F1000312DA0AF0D6FD0E4BD3E9002357
:100B4000841A61EB03050023D4F57A7A63EB050B75
:100B500052465B4608480CF08FFA07E007480CF055
:100B60008BFA64200AF078FDFFF7E4FE00BFBDE8D1
:100B7000B08F00BFA00A0024045401082C540108BF
:100B800080B582B000AF0023FB7000237B60134B65
:100B90001B78002B01D0FFF7BDFFFB1C012219467B
:100BA0000F480BF024FF78607B68002B0ADA7B6823
:100BB0005B42184609F094FB0346194609480CF0BD
:100BC0005BFA07E07B68002B04DDFB7803491846DD
:100BD000FFF772FF0837BD4680BD00BFE00100246B
:100BE000080200243454010880B584B000AFF860D6
:100BF000B9607A600AF077FD02460B460649C1E902
:100C00000023FFF7FBFEFFF78DFDFFF7B9FF0A207A
:100C10000AF022FD00BFF8E7A00A002480B586B0E4
:100C200000AF3B4600221A605A609A60DA600023E7
:100C30007B61104B1B687B6001233B704FF000020F
:100C40004FF00003C7E902233B4619460A480BF060
:100C500015FE78617B69002B09DA7B695B421846D7
:100C600009F03EFB0346194604480CF005FA183714
:100C7000BD4680BD84510108080200245C5401086F
:100C800080B500AF024B18460AF022FD00BF80BDC0
:100C9000A80A002480B485B000AFC7E900013B6812
:100CA000FB60FB680933044AA2FB0323DB081846F8
:100CB0001437BD4680BC7047CDCCCCCC80B584B059
:100CC00000AF78600023FB607B6803F584731846EF
:100CD000FFF796FA02467B681344202283F8082126
:100CE0007B6803F584707A687B6803F582730A4930
:100CF00009F038FBF860FB68022B01D1012307E003
:100D00007B686FF00802C3F820257B68D3F8203594
:100D100018461037BD4680BD7854010880B586B0AE
:100D200000AFF860B9607A6000237B614EE0FB6839
:100D300093F81035052B45D801A252F823F000BFD7
:100D4000590D00086B0D00087D0D00088F0D00087F
:100D5000A10D0008B30D00087B69BA6813441B7825
:100D60001946F8680AF07FFF2DE07B69BA681344E2
:100D70001B781946F8680AF0E1FF24E07B69BA683D
:100D800013441B781946F8680BF000F81BE07B69E8
:100D9000BA6813441B781946F8680AF09FFF12E0FE
:100DA0007B69BA6813441B781946F8680BF007F89A
:100DB00009E07B69BA6813441B781946F8680BF0A0
:100DC00014F800E000BF7B6901337B617A697B68BE
:100DD0009A42ACDB00BF00BF1837BD4680BD00BFE4
:100DE00080B586B000AFF860B9607A607B687B61DF
:100DF00000233B61BB681B78062B3CD801A252F84C
:100E000023F000BF210E0008210E00082D0E00085F
:100E1000770E0008770E0008770E0008590E0008BC
:100E20007B69283318460BF0A7FB24E07869BB6880
:100E30005A68BB689B68D118BB68DB681A460CF01F
:100E40002BFA03463B613B69002B13DD7B6938338A
:100E500018460BF091FB0DE07B69186F7B6903F27C
:100E6000744100234FF480620BF0FBFA38613B6958
:100E7000002B00E000BF1837BD4680BD80B584B0B0
:100E800000AF786039600023FB607B681B6F7A6875
:100E9000134918460BF06FFAF860FB68002B01DA73
:100EA000FB6818E07B68186F7B6803F274410023CD
:100EB0004FF480620BF0D5FAF860FB68002B01DA82
:100EC000FB6808E07B68074AC3F88C287B68064A01
:100ED000C3F89028002318461037BD4680BD00BFD8
:100EE000E10D0008ADC7000807C8000880B584B050
:100EF00000AF786039600023FB607B681B6F7A6805
:100F00000D4918460BF019FAF860FB68002B01DA5E
:100F1000FB680DE07B681B6F18460BF085FA7B6859
:100F2000064AC3F88C287B68054AC3F89028FB68FA
:100F300018461037BD4680BD8FC60008CBC60008D6
:100F400037C7000880B483B000AF7860034A7B687D
:100F5000136000BF0C37BD4680BC70475C010024A5
:100F600080B582B000AF78603960044B1B68786848
:100F70009847034618460837BD4680BD5C010024EB
:100F800080B586B000AF7860396007F108030022B1
:100F90001A605A609A60DA600223BB72064BFB60EB
:100FA00007F108033A687968184609F079FA00BF32
:100FB0001837BD4680BD00BF610F000880B588B0FE
:100FC00000AF7860396007F10C0300221A605A60A4
:100FD0009A60DA601A610223BB730A4B3B6107F126
:100FE0000C033A687968184609F05AFAFB69002B35
:100FF00004D007F10C0318460BF0E7FF00BF2037C1
:10100000BD4680BDF3CF000880B584B000AF7860E6
:1010100039600023FB600AE0094B1B687968FA68B5
:101020000A44127810469847FB680133FB60FA685F
:101030003B689A42F0D300BF00BF1037BD4680BD69
:101040005C01002480B400AF044B5B68034A43F0AA
:101050000103536000BFBD4680BC70470010005CB8
:1010600080B400AF044B5B68034A43F00203536053
:1010700000BFBD4680BC70470010005C80B584B0E6
:1010800000AF78607B680A2B01D900230DE0094A84
:101090007B6852F82330FB60F8680CF092FA034644
:1010A000002B01D0FB6800E0002318461037BD4636
:1010B00080BD00BF3064010880B586B000AF7860A5
:1010C0000B46FB70124B7B617B685B683B613B6945
:1010D0000833FB60FB78032B11DC022B12DA002BA8
:1010E00007D0012B0BD1F96878690CF089FA034617
:1010F0000AE0F96878690CF09CFA034604E06FF0A6
:10110000850301E000BF002318461837BD4680BDA7
:10111000D04A010880B582B000AF78600449786891
:101120000CF0B0FA034618460837BD4680BD00BF34
:10113000B910000880B483B000AF7860064BDB685C
:1011400023F0070204497B681343CB6000BF0C37D0
:10115000BD4680BC704700BF0048025880B400AF55
:10116000034B1B681B0C9BB21846BD4680BC7047E6
:101170000010005C80B485B000AF4FF00053BB603E
:101180000A4B7B60BB68FB6005E0FB6800221A60CD
:10119000FB680433FB60FA687B689A42F5D300BFB2
:1011A00000BF1437BD4680BC704700BF000002205E
:1011B00080B586B000AF00F043FF00BF00BF114B09
:1011C000114A1A600220FFF7B5FFFFF7C7FF034679
:1011D00041F20302934211D10C4B7B6101233B612D
:1011E0007B69FB603B69BB60FB681B687B60FB68DD
:1011F000B9687A680A431A6000BF00BF00BF183799
:10120000BD4680BDAC0100240090D0030881005190
:1012100080B483B000AF78607B68044A1A60012311
:1012200018460C37BD4680BC704700BF38650108C2
:1012300080B500AF00F0FEFE0346024A9B581846F8
:1012400080BD00BF0800000080B584B000AFF8602A
:10125000B9607A603B600CF0C9FA024600F0EAFE21
:10126000034606495A50FB683A687968B868984757
:10127000FFF7DEFF034618460CF0BFFA0800000037
:1012800080B500AF084A094BD31A1A460021074817
:101290000CF0BEFA064A074BD31A1A46002105483D
:1012A0000CF0B6FA80BD00BF181600240802002416
:1012B000000000200000002080B500AF0C4A0D4B5C
:1012C000D31A1A460C490B480CF0B1FA0B4A0C4BD6
:1012D000D31A1A460B490A480CF0A9FA0A4A0B4BD2
:1012E000D31A1A460A4909480CF0A1FA00BF80BD7A
:1012F000080200240000002498690108000000246E
:10130000000000249869010800000020000000206F
:10131000A06B010880B582B000AF78600BF04FFE83
:101320007B6819687B685A687B689B6810480BF07B
:10133000A3FE0BF044FE7B68D9687B681A697B6862
:101340005B690C480BF098FE0BF039FE7B68DB699B
:10135000194609480BF090FE0BF031FE7B689B6943
:10136000194606480BF088FE00BF0837BD4680BD11
:101370005855010888550108B8550108C855010895
:1013800080B584B000AF786039603B68002B02D034
:101390003868FFF7BFFF7B68012B0BD1EFF30583A4
:1013A000BB60BB68103BFB600BF009FEF9680548A9
:1013B0000BF062FE3968786805F05CF800BF103702
:1013C000BD4680BDF855010830BFFFF7FDBF00BF27
:1013D00080B483B000AF054A054B13447B607B6843
:1013E00018460C37BD4680BC704700BF00000000A7
:1013F0000800000080B582B000AF7860094B1A4643
:1014000009497868FEF768FF064A7B6813447B60E9
:10141000064B1A460021786808F074FC00BF0837B4
:10142000BD4680BD000000007951010808000000A1
:1014300080B58AB000AFF860B9607A6010237B6233
:101440006FF015033B620BF0BAFD4E480BF014FE33
:101450004D4B9B6A03F01003002B06D011237B62D7
:101460000BF0ADFD49480BF007FE474B9B6A03F0BC
:101470000803002B06D012237B620BF0A0FD44482A
:101480000BF0FAFD404B9B6A03F00203002B1DD0CA
:1014900013237B620BF093FD3E480BF0EDFD3A4BBE
:1014A0005B6BFB61384B9B6A03F08003002B0DD014
:1014B000FB693B620BF083FD396A37480BF0DCFDBA
:1014C000BB68002B02D0304B80229A622E4B9B6A65
:1014D00003F00103002B06D014237B620BF06FFD99
:1014E0002E480BF0C9FD284B9B6A03F02003002B0C
:1014F00006D015237B620BF062FD29480BF0BCFD82
:10150000214B9B6A03F01003002B05D11E4B9B6AF5
:1015100003F00203002B16D01B4B5B6803F400633F
:10152000002B10D0FB681946386A0CF024FAB86119
:10153000BB69002B07D0BB697B617B6983F309889A
:1015400000BF02237B62104B9B6A03F02003002B39
:1015500005D00D4B5B6A0C4A23F4005353620A4BCF
:101560009B6A094A43F0FF0393620121F8680CF07B
:10157000BAF903461A467B681A707B6A1846283700
:10158000BD4680BD0C56010800ED00E02456010860
:10159000585601086C56010888560108A0560108E3
:1015A000C056010880B586B000AFF860B9607A60B7
:1015B00016237B610BF003FD3D480BF05DFD3D4BB9
:1015C0009B6A03F48053002B06D017237B610BF03A
:1015D000F6FC39480BF050FD364B9B6A03F4006370
:1015E000002B06D018237B610BF0E9FC33480BF08D
:1015F00043FD304B9B6A03F40073002B1CD019236E
:101600007B610BF0DCFC2E480BF036FD294B9B6B0D
:101610003B61284B9B6A03F40043002B0CD00BF07A
:10162000CEFC396927480BF027FDBB68002B03D09F
:10163000204B4FF400429A621E4B9B6A03F4806376
:10164000002B06D01A237B610BF0B9FC1E480BF06F
:1016500013FD184B9B6A03F48073002B07D01B23E8
:101660007B610BF0ACFC19480BF006FD0CE0114B54
:101670009B6A03F40053002B06D01C237B610BF004
:101680009EFC13480BF0F8FC0A4B9B6A094A43F492
:101690007F4393620121F8680CF025F903461A464E
:1016A0007B681A707B6918461837BD4680BD00BF3D
:1016B000F056010800ED00E00857010858560108EF
:1016C0001C57010838570108505701086C5701088A
:1016D000C056010880B584B000AF78601D23FB6060
:1016E0000BF06DFC2D480BF0C7FC2D4B9B6A03F0F3
:1016F0000073002B06D01E23FB600BF060FC294812
:101700000BF0BAFC264B9B6A03F08073002B06D0CB
:101710001F23FB600BF053FC23480BF0ADFC204B68
:101720009B6A03F40023002B06D02123FB600BF0FF
:1017300046FC1E480BF0A0FC194B9B6A03F4802367
:10174000002B06D02223FB600BF039FC18480BF06D
:1017500093FC134B9B6A03F40033002B06D0232326
:10176000FB600BF02CFC13480BF086FC0C4B9B6AC7
:1017700003F48033002B06D02423FB600BF01FFC06
:101780000D480BF079FC064B9A6A05490B4B134345
:101790008B62FB6818461037BD4680BD885701082C
:1017A00000ED00E0A4570108B8570108D45701081C
:1017B000F45701081C580108385801080000FFFFC1
:1017C00080B582B000AF786039603B6800221A7043
:1017D0000BF0F5FB03480BF04FFC00BF0837BD468C
:1017E00080BD00BF6458010880B485B000AF786048
:1017F0007B689B69FB601B4B5B691A4A43F48073EF
:101800005361BFF34F8F00BF00BF00BFBFF36F8FA7
:1018100000BF00BF00BFFB6833F8023C7B81114B67
:101820005B69104A23F480735361BFF34F8F00BF8D
:1018300000BF00BFBFF36F8F00BF00BF00BF7B8939
:1018400003F47F43B3F55F4F05D17B89DBB2022BF5
:1018500001D1012300E0002318461437BD4680BCA7
:10186000704700BF00ED00E080B586B000AFF860C3
:10187000B9601346FB7100237B610BF0A0FB30487D
:101880000BF0FAFBBB6800221A702E4BDB6A03F0E8
:101890000203002B05D00BF092FB2B480BF0ECFB66
:1018A00049E0284BDB6A002B05DA0BF088FB274860
:1018B0000BF0E2FB3FE0234BDB6A03F08043002B9D
:1018C00039D00BF07CFB22480BF0D6FBF868FFF711
:1018D0008BFF0346002B0BD00BF071FBFB681B68E2
:1018E00019461C480BF0C8FBFB681B687B6122E0B3
:1018F000144B9B6ADBB2002B06D0BA680121F86852
:10190000FFF796FD786116E00E4B9B6A03F47F4368
:10191000002B07D0BA680121F868FFF743FE0346A1
:101920007B6108E0074B9B6AB3F5803F03D3F868FF
:10193000FFF7D0FE78617B6918461837BD4680BD39
:101940008C58010800ED00E0A4580108C8580108AF
:10195000D8580108F858010880B582B000AF786007
:1019600039600BF02CFB3B680F2B01DC064900E0D3
:1019700006493B68103B1A4605480BF07DFB00BF4B
:101980000837BD4680BD00BF18590108305901080D
:101990004C59010880B586B000AFF860B9607A6034
:1019A000FB7000237B617B6800221A70BB68033BDD
:1019B000092B38D801A252F823F000BFE51900081E
:1019C000F5190008031A0008131A0008271A00085E
:1019D000271A0008271A0008271A0008271A0008E3
:1019E0001D1A0008FB781A467968F868FFF73CFF73
:1019F00078611DE07A680021F868FFF719FD7861C9
:101A000016E07A680021F868FFF7CCFD03467B6199
:101A10000EE0F868FFF75EFE786109E07968F86823
:101A2000FFF7CEFE04E0B968F868FFF795FF00BF46
:101A30007B681B7883F00103DBB2002B03D0B9680D
:101A4000F8680BF046FF7B6918461837BD4680BD25
:101A500080B586B000AFF860B9607A603B60002363
:101A6000FB7400237B613B6800221A703B6A0022F2
:101A70001A707B6803F07F43B3F17F4F01D00023DE
:101A800024E07B6803F00803002B0BD07B6803F095
:101A90000403002B06D10BF092FA0E480BF0ECFA7F
:101AA000002313E0FB7C83F00103DBB2002B0CD09E
:101AB0007B6803F00803002B02D0BB687B6104E065
:101AC000FB687B613B6801221A707B6918461837F6
:101AD000BD4680BD6059010880B598B002AFF8607E
:101AE000B9607A603B6000237B65304B5B68C3F371
:101AF00008033B650023BB64BB6C7B647B6C83F396
:101B0000118800BFBFF36F8F00BF00BF07F13A021B
:101B100007F13003009313467A68B968F868FFF755
:101B200097FFF864FB6C002B09D10BF048FA2048B2
:101B30000BF0A2FA00210020FFF722FC33E0FB6C3F
:101B40003B647B68FB6300BF97F8303007F13B02D2
:101B5000396DF86CFFF71EFF786597F83B30002B66
:101B600020D107F110032022F96C1846FEF7B4FBD0
:101B700097F83A30002B0AD0FB6AC3F30803002B16
:101B800009D1FA6A40F2FF131343FB6203E0FA6AD9
:101B9000084B1340FB6207F110031946786DFFF7FD
:101BA000EFFB00E000BF5837BD4680BD00ED00E010
:101BB0008C59010800FEFFFF80B400AF074B5B6942
:101BC000064A43F010035361044B5B69034A23F058
:101BD0000803536100BFBD4680BC704700ED00E0C4
:101BE000EFF30880EFF3098101B57246FFF774FF48
:101BF00001BD00BF0D4880F3088800200C49087023
:101C0000FFF7B8FA102080F311880A484FF40461F6
:101C1000401880F30988EFF314800221084380F311
:101C20001488BFF36F8F0BF096FE0000805A0024DB
:101C300016160024405C00241EF0040F0CBFEFF3C6
:101C40000880EFF30980816911F8021C0229FFD096
:101C500001B572460BF0FAFD01BD00BF80B483B040
:101C600000AF0346FB80B7F90630002B0BDBFB8887
:101C700003F01F020649B7F906305B09012000FA9C
:101C800002F241F8232000BF0C37BD4680BC7047EC
:101C900000E100E080B483B000AF03463960FB8010
:101CA000B7F90630002B0ADB3B68DAB20C49B7F90A
:101CB00006301201D2B20B4483F800230AE03B68DD
:101CC000DAB20849FB8803F00F03043B1201D2B2D9
:101CD0000B441A7600BF0C37BD4680BC704700BF6E
:101CE00000E100E000ED00E080B400AF094B0A4ADB
:101CF00023F07F039360BFF34F8F00BF00BF00BF8F
:101D0000BFF36F8F00BF00BF00BF00BFBD4680BCE8
:101D1000704700BF0000000800ED00E080B483B011
:101D200000AF0D4BD3F888300B4A23F47003C2F890
:101D30008830EFF314833B603B6823F004037B603F
:101D40007B6883F31488BFF36F8F00BF00BF00BFB1
:101D50000C37BD4680BC704700ED00E080B487B012
:101D600000AFF860B9607A603B60154B7B617B68BF
:101D7000203B3B617A693B699A613B699B6923F02F
:101D800001023B699A613A683B691A603A6A3B69A9
:101D90005A607A6A3B699A60BA6A3B69DA603B6961
:101DA0004FF08072DA613A69FB681A65FB680022BD
:101DB000C3F8B82000BF1C37BD4680BC704700BFC9
:101DC0004912000880B485B000AF786039601F4BBD
:101DD0009B68FB60FB68002B01D1002330E04023AF
:101DE000BB607B6813F1160F1AD0FB68D3F8942000
:101DF000BB68D31A7A689A420DD3FB68D3F8943043
:101E00007A689A4207D2FB68D3F894303A689A42CB
:101E100001D2012300E0002303F00103DBB208E05C
:101E2000FB68D3F894303A689A4234BF0123002308
:101E3000DBB2002B03D0FB68D3F8943000E0002322
:101E400018461437BD4680BC704700BFD415002427
:101E5000F0B585B000AFF860B9607A600BF0A5FD11
:101E60000E4AFB689360FB68D3F8A4300C4A1360F9
:101E7000F86800F021F97D68BE682C4686F3098871
:101E80000020044B98472046002100220023024CEA
:101E900020470000B7D9000849120008D4150024D3
:101EA000F413002480B400AF034B10221A6100BF6A
:101EB000BD4680BC704700BF00ED00E080B400AFBD
:101EC000074B5A69064B9B689A4205D0054B5B68E5
:101ED000044A43F08053536000BFBD4680BC704746
:101EE000D415002400ED00E080B584B000AF786028
:101EF000114B9B687A689A4216D1EFF30583FB6019
:101F0000FB68002B14BF01230023DBB2002B0BD096
:101F10000A4B5B68094A43F080535360074B5B6A86
:101F2000064A23F400435362786805F065FE00BF5B
:101F30001037BD4680BD00BFD415002400ED00E081
:101F400015498A684FF030001044EFF3098C80E89F
:101F5000F01F102080F31288BFF36F8F0F4F4FF0E8
:101F600000664A698A603E60D2F8A4000C4C20608A
:101F7000D2F8B8000023C2F8B83080F3118804B555
:101F8000104600F099F8BDE8044002F1300090E8F6
:101F9000F01F8CF309887047D415002404ED00E08D
:101FA000F413002480B483B000AF03463960FB8093
:101FB000B7F90630002B0ADB3B68DAB20C49B7F9F7
:101FC00006301201D2B20B4483F800230AE03B68CA
:101FD000DAB20849FB8803F00F03043B1201D2B2C6
:101FE0000B441A7600BF0C37BD4680BC704700BF5B
:101FF00000E100E000ED00E080B584B000AFEFF359
:1020000005837B607B68FB60FB68103BFB60FB68C3
:10201000DB00074A1344BB60BB685B68BA681268A0
:1020200010469847FFF74AFF00BF1037BD4680BDF6
:10203000C84C01080148006870470000F4130024F0
:1020400080B400AF134B5B6903F40033002B1BD14A
:10205000BFF34F8F00BFBFF36F8F00BF0D4B002248
:10206000C3F85022BFF34F8F00BFBFF36F8F00BF85
:10207000084B5B69074A43F400335361BFF34F8F4A
:1020800000BFBFF36F8F00E000BF00BFBD4680BC44
:10209000704700BF00ED00E080B500AF034A044B7D
:1020A000012104480BF0D5FD00BF80BD00000024D5
:1020B000000008244865010880B586B000AF78604C
:1020C0000023FB7540233B617B68D3F894203B6978
:1020D000D31AFB60FA7D144913465B0013449B003E
:1020E0000B44FA681A60FA7D0F4913465B001344EB
:1020F0009B000B4404333A691A60FA7D0A4913467F
:102100005B0013449B000B440833084A1A60FB7DB4
:102110000133FB75FB7D194603480BF0ACFD00BF96
:102120001837BD4680BD00BFF813002400000B1512
:1021300080B483B000AF7860054A7B689360044B3D
:1021400000221A6100BF0C37BD4680BC704700BF3B
:1021500090ED00E080B483B000AF074B1B687B605C
:102160007B681B0ADBB27B607B68DBB218460C37EE
:10217000BD4680BC704700BF90ED00E080B483B0E6
:1021800000AF7860034A7B68936000BF0C37BD46A0
:1021900080BC704790ED00E080B582B000AF786001
:1021A00039607868FFF7EAFF3B681B6823F01F027D
:1021B0007B681343074A43F01003D3603B689B6876
:1021C000044A43F00103136100BF00BF0837BD4656
:1021D00080BD00BF90ED00E080B586B000AFF86034
:1021E0007A603B600B46FB72094B1B787B617B6915
:1021F000DAB2F97A0123F8680BF0D4FC78617B69D4
:10220000DAB2034B1A707B6918461837BD4680BD99
:102210001416002480B584B000AF78600B46FB70C4
:10222000124B1B78BB60BB68DAB2F9780023786880
:102230000BF0B8FCB860BB6813F1160F10D0BB6888
:10224000FB6006E0FB681846FFF772FFFB6801338E
:10225000FB60FFF77FFF03461A46FB689342F1DB02
:10226000BB6818461037BD4680BD00BF1416002459
:10227000B0B59EB000AF786007F16C031846FEF76A
:10228000C7FF386700237B67F8E0FA6E7B6F1B019E
:102290001344DA687E4B1340B3F1805F00F0BE80D8
:1022A000B3F1805F00F2E780B3F1007F00F09D8022
:1022B000B3F1007F00F2DF80B3F1807F7CD0B3F117
:1022C000807F00F2D880B3F5000F5CD0B3F5000F2B
:1022D00000F2D180B3F5800F3CD0B3F5800F00F24F
:1022E000CA80B3F5801F03D0B3F5001F19D0C2E038
:1022F000FA6E7B6F1B0113445D68FA6E7B6F1B01E6
:1023000013441C68FA6E7B6F1B0113449B681846CC
:102310000BF0CBFB02465F4B13433D667C66BB660E
:1023200095E0FA6E7B6F1B0113445D68FA6E7B6F5C
:102330001B0113441C68FA6E7B6F1B0113449B68DE
:1023400018460BF0B2FB0246534B13433D667C66C6
:10235000BB667CE0FA6E7B6F1B0113445D68FA6E0E
:102360007B6F1B0113441C68FA6E7B6F1B011344C7
:102370009B6818460BF099FB0246484B13433D6699
:102380007C66BB6663E0FA6E7B6F1B0113445D687D
:10239000FA6E7B6F1B0113441C68FA6E7B6F1B0186
:1023A00013449B6818460BF080FB02463C4B1343DA
:1023B0003D667C66BB664AE0FA6E7B6F1B01134488
:1023C0005D68FA6E7B6F1B0113441C68FA6E7B6FAD
:1023D0001B0113449B6818460BF067FB0246314B08
:1023E00013433D667C66BB6631E0FA6E7B6F1B0172
:1023F00013445D68FA6E7B6F1B0113441C68FA6E10
:102400007B6F1B0113449B6818460BF04EFB024682
:10241000254B13433D667C66BB6618E0FA6E7B6F06
:102420001B0113445D68FA6E7B6F1B0113441C682B
:10243000FA6E7B6F1B0113449B6818460BF035FB4B
:1024400002461A4B13433D667C66BB6600BF7B6841
:102450001B7807F16002114618460BF063FB034638
:10246000002B02DA6FF015030EE07B681B78013356
:10247000DAB27B681A707B6F01337B677A6F3B6FD0
:102480009A42FFF402AF002318467837BD46B0BD2C
:102490000000F0FF00000B11000008110000020214
:1024A00000000411000010110000041000000211CF
:1024B00080B400AF084B05225A60BFF34F8F00BFB6
:1024C00000BF00BFBFF36F8F00BF00BF00BF00BFE2
:1024D000BD4680BC704700BF90ED00E080B400AF07
:1024E000BFF35F8F00BF00BF00BF034B00225A60E5
:1024F00000BFBD4680BC704790ED00E090B583B052
:1025000000AF274B1C68FFF725FE03469C4202D90B
:102510004FF0FF333FE000BFFFF7E0FF0BF09DFA05
:1025200000237B600EE01E4B59687A6813465B00FF
:1025300013449B000B4419467868FFF72DFE7B6817
:1025400001337B60164B1B687A689A42EBD3144BBD
:102550001B68DAB2134B1A701248FFF789FE034664
:1025600013F1160F02D16FF0150314E00D4B1B7819
:102570003B6006E03B6818460BF0C9FA3B68013344
:102580003B60FFF7E7FD03461A463B689342F1DBE9
:10259000FFF78EFF002318460C37BD4690BD00BFE5
:1025A000306501081416002480B582B000AF786051
:1025B0003960044B1B687868984700231846083731
:1025C000BD4680BD0414002480B483B000AF7860A1
:1025D000074A7B681360074B9B7843F00203DAB22B
:1025E000044B9A7000BF0C37BD4680BC704700BFDB
:1025F000041400246001002480B582B000AF0023E1
:102600007B600B4B073323F007037B60084B0733DA
:1026100023F00702074B9B1A3B603A68796806482B
:102620000AF02CFC002318460837BD4680BD00BFC9
:10263000C0680024000008240814002480B584B079
:1026400000AF0023FB60094BBB60094A3B4692E8A0
:10265000030083E803003B461946B8680BF038FBDB
:10266000F860FB6818461037BD4680BDD04A0108A7
:102670007C51010880B588B000AF78601D4BBB610C
:102680007B687B610023FB7729E07B691B781A4616
:10269000FB7F13443B6138690BF0BEFB0346002B04
:1026A0001AD038690BF000FCBB693A6953F8323034
:1026B000002B10D038690BF034FCF860BB693A6924
:1026C00053F83220B9693B69DB000B445B6819465B
:1026D000F868904700E000BFFB7F0133FB777B6920
:1026E0005B78FA7F9A42D0D300BF00BF2037BD4647
:1026F00080BD00BF1414002480B485B000AF034631
:102700003A60FB710B46BB710023FB600BE097F94D
:102710000720FB6813443A6811B2084A22F81310E4
:10272000FB680133FB6097F90630FA689A42EEDBEA
:1027300000BF00BF1437BD4680BC70477001002445
:1027400080B500AF354B1B785BB2344A527851B23A
:1027500006221846FFF7D0FF0022002106200BF0CA
:10276000DBF82F4B1B785BB22D4A527851B207220F
:102770001846FFF7C1FF0022002107200BF0CCF81C
:10278000284B1B785BB2274A527851B20822184670
:10279000FFF7B2FF0022002108200BF0BDF8224B0A
:1027A0001B785BB2204A527851B209221846FFF7D3
:1027B000A3FF0022002109200BF0AEF81B4B1B7871
:1027C0005BB21A4A527851B20A221846FFF794FFB8
:1027D000002200210A200BF09FF8154B1B785BB2FA
:1027E000134A527851B217221846FFF785FF00228C
:1027F000002117200BF090F80E4B1B785BB20D4AAE
:10280000527851B228221846FFF776FF00220021A5
:1028100028200BF081F80023184680BD546501087C
:10282000586501085C650108606501086465010878
:10283000686501086C65010880B485B000AF7860F8
:10284000094BD3F8E02008497B681343C1F8E03016
:10285000054BD3F8E0207B681340FB60FB6800BFAA
:102860001437BD4680BC70470044025880B485B020
:1028700000AF7860094BD3F8F42008497B68134314
:10288000C1F8F430054BD3F8F4207B681340FB60AB
:10289000FB6800BF1437BD4680BC70470044025837
:1028A00080B483B000AF7860064B9B6923F440424C
:1028B00004497B6813438B6100BF0C37BD4680BC65
:1028C000704700BF0048025880B400AF064B9B69B8
:1028D00003F40053B3F5005F01D1012300E00023AE
:1028E0001846BD4680BC70470048025880B400AF0F
:1028F000044B1B68034A23F48023136000BFBD46CA
:1029000080BC70470044025880B400AF044B1B6881
:10291000034A43F48033136000BFBD4680BC704758
:102920000044025880B400AF064B1B6803F4003328
:10293000B3F5003F01D1012300E000231846BD4656
:1029400080BC70470044025880B400AF044B1B6841
:10295000034A43F00103136000BFBD4680BC7047CB
:102960000044025880B400AF064B1B6803F0040318
:10297000042B01D1012300E000231846BD4680BC92
:10298000704700BF0044025880B400AF044B1B687E
:10299000034A43F48053136000BFBD4680BC7047B8
:1029A0000044025880B400AF064B1B6803F4005388
:1029B000B3F5005F01D1012300E000231846BD46B6
:1029C00080BC70470044025880B400AF044B5B6F7A
:1029D000034A43F00103536700BFBD4680BC704704
:1029E0000044025880B400AF064B5B6F03F0020353
:1029F000022B01D1012300E000231846BD4680BC14
:102A0000704700BF0044025880B483B000AF7860C4
:102A1000064B1B6923F0070204497B6813430B61D3
:102A200000BF0C37BD4680BC704700BF0044025851
:102A300080B400AF034B1B6903F038031846BD4652
:102A400080BC70470044025880B483B000AF786007
:102A5000064B9B6923F4706204497B6813438B61C6
:102A600000BF0C37BD4680BC704700BF0044025811
:102A700080B483B000AF7860064B9B6923F00F02EF
:102A800004497B6813438B6100BF0C37BD4680BC93
:102A9000704700BF0044025880B483B000AF786034
:102AA000064BDB6923F0700204497B681343CB615A
:102AB00000BF0C37BD4680BC704700BF00440258C1
:102AC00080B483B000AF7860064BDB6923F4E0622A
:102AD00004497B681343CB6100BF0C37BD4680BC03
:102AE000704700BF0044025880B483B000AF7860E4
:102AF000064B9B6923F0700204497B6813438B618A
:102B000000BF0C37BD4680BC704700BF0044025870
:102B100080B483B000AF7860064B1B6A23F070026C
:102B200004497B6813430B6200BF0C37BD4680BC71
:102B3000704700BF0044025880B483B000AF786093
:102B4000064B1B6923F4004204497B6813430B6165
:102B500000BF0C37BD4680BC704700BF0044025820
:102B600080B483B000AF7860064B9B6A23F0030209
:102B700004497B6813438B6200BF0C37BD4680BCA1
:102B8000704700BF0044025880B400AF044B1B687C
:102B9000034A43F08073136000BFBD4680BC70479A
:102BA0000044025880B400AF044B1B68034A23F072
:102BB0008073136000BFBD4680BC7047004402585C
:102BC00080B400AF064B1B6803F00073B3F1007FC5
:102BD00001D1012300E000231846BD4680BC7047A8
:102BE0000044025880B400AF044BDB6A034A43F44C
:102BF0008033D36200BFBD4680BC7047004402589A
:102C000080B400AF044BDB6A034A43F40033D36261
:102C100000BFBD4680BC70470044025880B400AF7E
:102C2000044BDB6A034A43F48023D36200BFBD46F2
:102C300080BC70470044025880B400AF044BDB6A8C
:102C4000034A23F00103D36200BFBD4680BC704736
:102C50000044025880B483B000AF7860064BDB6A52
:102C600023F002027B685B0003491343CB6200BF81
:102C70000C37BD4680BC70470044025880B483B016
:102C800000AF7860064BDB6A23F00C027B689B0088
:102C900003491343CB6200BF0C37BD4680BC70476D
:102CA0000044025880B483B000AF7860064B1A6BC2
:102CB000064B13407A68013A034913430B6300BF84
:102CC0000C37BD4680BC70470044025800FEFFFF31
:102CD00080B483B000AF7860064B9B6A23F47C72AB
:102CE0007B681B01034913438B6200BF0C37BD4651
:102CF00080BC70470044025880B483B000AF786055
:102D0000074B1B6B23F47E427B68013B5B0204494B
:102D100013430B6300BF0C37BD4680BC704700BF38
:102D20000044025880B483B000AF7860074B1B6B3F
:102D300023F4FE027B68013B1B04044913430B632D
:102D400000BF0C37BD4680BC704700BF004402582E
:102D500080B483B000AF7860074B1B6B23F0FE425A
:102D60007B68013B1B06044913430B6300BF0C3710
:102D7000BD4680BC704700BF0044025880B400AF1D
:102D8000044B1B68034A43F08063136000BFBD46D9
:102D900080BC70470044025880B400AF044B1B68ED
:102DA000034A23F08063136000BFBD4680BC7047B8
:102DB0000044025880B400AF064B1B6803F0006368
:102DC000B3F1006F01D1012300E000231846BD4696
:102DD00080BC70470044025880B400AF044BDB6AEB
:102DE000034A43F40023D36200BFBD4680BC704752
:102DF0000044025880B400AF044BDB6A034A43F43A
:102E00008013D36200BFBD4680BC704700440258A7
:102E100080B400AF044BDB6A034A43F40013D3626F
:102E200000BFBD4680BC70470044025880B400AF6C
:102E3000044BDB6A034A23F01003D36200BFBD4694
:102E400080BC70470044025880B483B000AF786003
:102E5000064BDB6A23F020027B685B0103491343C6
:102E6000CB6200BF0C37BD4680BC7047004402589F
:102E700080B483B000AF7860064BDB6A23F0C002F9
:102E80007B689B0103491343CB6200BF0C37BD46EF
:102E900080BC70470044025880B483B000AF7860B3
:102EA000064B9A6B064B13407A68013A0349134369
:102EB0008B6300BF0C37BD4680BC7047004402588E
:102EC00000FEFFFF80B483B000AF7860064B9B6AC2
:102ED00023F47C327B681B03034913438B6200BFDE
:102EE0000C37BD4680BC70470044025880B483B0A4
:102EF00000AF7860074B9B6B23F47E427B68013BFD
:102F00005B02044913438B6300BF0C37BD4680BC92
:102F1000704700BF0044025880B483B000AF7860AF
:102F2000074B9B6B23F4FE027B68013B1B040449A7
:102F300013438B6300BF0C37BD4680BC704700BF96
:102F40000044025880B483B000AF7860074B9B6B9D
:102F500023F0FE427B68013B1B06044913438B634D
:102F600000BF0C37BD4680BC704700BF004402580C
:102F700080B400AF044B1B68034A43F080531360D6
:102F800000BFBD4680BC70470044025880B400AF0B
:102F9000044B1B68034A23F08053136000BFBD46F7
:102FA00080BC70470044025880B400AF064B1B68D9
:102FB00003F00053B3F1005F01D1012300E00023CF
:102FC0001846BD4680BC70470044025880B400AF2C
:102FD000044BDB6A034A43F48003D36200BFBD465F
:102FE00080BC70470044025880B400AF044BDB6AD9
:102FF000034A43F40003D36200BFBD4680BC704760
:103000000044025880B400AF044BDB6A034A43F02B
:103010008073D36200BFBD4680BC70470044025835
:1030200080B400AF044BDB6A034A23F48073D3629D
:1030300000BFBD4680BC70470044025880B483B0D6
:1030400000AF7860064BDB6A23F400727B685B029A
:1030500003491343CB6200BF0C37BD4680BC7047A9
:103060000044025880B483B000AF7860064BDB6A3E
:1030700023F440627B689B0203491343CB6200BF89
:103080000C37BD4680BC70470044025880B483B002
:1030900000AF7860064B1A6C064B13407A68013A11
:1030A000034913430B6400BF0C37BD4680BC704717
:1030B0000044025800FEFFFF80B483B000AF786088
:1030C000064B9B6A23F07C727B681B050349134304
:1030D0008B6200BF0C37BD4680BC7047004402586D
:1030E00080B483B000AF7860074B1B6C23F47E4242
:1030F0007B68013B5B02044913430B6400BF0C3740
:10310000BD4680BC704700BF0044025880B483B005
:1031100000AF7860074B1B6C23F4FE027B68013B19
:103120001B04044913430B6400BF0C37BD4680BC2D
:10313000704700BF0044025880B483B000AF78608D
:10314000074B1B6C23F0FE427B68013B1B060449C6
:1031500013430B6400BF0C37BD4680BC704700BFF3
:103160000044025880B400AF024B1846BD4680BCF4
:10317000704700BF40787D0180B582B000AF00236A
:103180007B60FFF755FC0346182B42D801A252F88A
:1031900023F000BFFF31000813320008133200088B
:1031A00013320008133200081332000813320008EB
:1031B00013320008F93100081332000813320008F6
:1031C00013320008133200081332000813320008CB
:1031D00013320008053200081332000813320008C9
:1031E00013320008133200081332000813320008AB
:1031F000133200080B32000800237B600BE0094B00
:103200007B6008E0084B7B6005E0FFF7ABFF786070
:1032100001E0002301E07B685B0818460837BD46E3
:1032200080BD00BF0090D00340787D0180B582B0A2
:1032300000AF0220FFF71AFB00237B60104B9B6955
:103240000F4A43F4404393610D4B9B6903F44043A1
:103250007B600C4BDB6A0B4A43F00103D362094BE2
:10326000DB6A03F001037B607B6800BFFFF72CFB88
:103270000346002BFAD0002318460837BD4680BD10
:10328000004802580004005880B485B000AF786050
:1032900039601F4A7B68B2FBF3F3FB60FB681D4A91
:1032A000934207D9FB681C4A934203D83B6800222B
:1032B0001A6026E0FB68184A934207D9FB68174A50
:1032C000934203D83B6801221A601AE0FB68134A54
:1032D000934207D9FB68124A934203D83B68022203
:1032E0001A600EE0FB680E4A934207D9FB680D4A4C
:1032F000934203D83B6803221A6002E06FF0210377
:1033000000E0002318461437BD4680BC704700BF5C
:1033100040787D013F420F0080841E0000093D007F
:1033200000127A000024F40080B588B000AF786005
:1033300039603B68FB61FB691B88C3F30B039BB2DD
:10334000D32B06D9FB691B88C3F30B039BB2F42B69
:1033500002D96FF085032AE04FF4801100200AF0B3
:10336000EFFDFB691B88C3F30B039BB21A46124B9C
:103370001344FA6952687B613A617B691B68FB60A0
:103380007B693969FA680A431A6000BFFB691B88C8
:10339000C3F30B039BB21A46074B1344BB61BB69D3
:1033A0001B68BB60BB6800200AF0D4FD00231846F0
:1033B0002037BD4680BD00BF0044025880B586B0AE
:1033C00000AF786039603B687B617B691B88C3F321
:1033D0000B039BB2D32B06D97B691B88C3F30B036A
:1033E0009BB2F42B02D96FF085031EE04FF48011DD
:1033F00000200AF0A5FD7B691B88C3F30B039BB279
:103400001A460C4B13447A6952683B61FA603B6977
:103410001B68BB60FB68D9433B69BA680A401A6005
:1034200000BF00200AF096FD002318461837BD465D
:1034300080BD00BF0044025880B592B000AFF86074
:10344000B9607A60BB687B647B6C5B683B643B6C97
:103450009BB2FB633B6C1B0C03F01F03BB637B6CD9
:103460001B88C3F30B039BB218460AF009FE78636E
:103470007B6B002B01DA7B6B3EE07B6C5B68FF2B88
:1034800001D1002338E04FF4801100200AF058FDEC
:10349000FA6B1B4B134418463B6C5B0D03F00303A4
:1034A0000133012202FA03F35A1EBB6B9A403B6CB4
:1034B000190EBB6B01FA03F33863FA62BB623B6B14
:1034C0007B627B6A3B623B6A1A6800BFFB6ADB4334
:1034D0001A40BB6A13433A6BFA61BB61FB69BA6974
:1034E0007A613B613B697A691A6000BF00BF00BF27
:1034F00000200AF02FFD002318464837BD4680BD46
:103500000044025880B58CB002AFF860B9607A60B0
:10351000BB687B62A94B1B68022118460AF023FD99
:1035200038620221386A0AF01EFDF8610221386A09
:103530000AF019FDB8610221386A0AF014FD7861B9
:103540000221386A0AF00FFD38617B6A1B88C3F3D9
:103550000B039BB2F42B00F31781E82B04DA132B37
:1035600068DC002B39DC0FE1E83B0C2B00F20C810E
:1035700001A252F823F000BF49360008893700083D
:10358000893700088937000849360008893700085C
:103590008937000889370008513600088937000844
:1035A000893700088937000861360008D43B0122BA
:1035B0009A4041F211131340002B14BF0123002342
:1035C000DBB2002B3CD102F48033002B14BF01236B
:1035D0000023DBB2002B3FD1D6E0013B122B00F2DF
:1035E000D38001A252F823F0693600088937000819
:1035F0007D360008753600088736000889370008D0
:10360000893700088F360008A9360008C33600083D
:10361000DD360008F7360008113700082B370008A0
:10362000453700085F3700088937000879370008F8
:1036300081370008E42B00F3A780D42BB6DAA3E08F
:103640007B683A6A1A60A2E07B68FA691A609EE0B9
:103650007B68BA691A609AE07B687A691A6096E0BA
:103660007B683A691A6092E00AF0D8FC02467B68EF
:103670001A608CE07B68524A1A6088E07B684FF4DD
:10368000FA421A6083E07B684E4A1A607FE0FFF7D7
:1036900069FD022300930023C02205210AF071FC7A
:1036A00002467B681A6072E0FFF75CFD022300931C
:1036B0000023C02205210AF064FC02467B681A60E0
:1036C00065E0FFF74FFD022300930023C022052190
:1036D0000AF057FC02467B681A6058E0FFF742FD8B
:1036E000022300930023802210210AF04AFC0246A4
:1036F0007B681A604BE0FFF735FD0223009300233F
:10370000802210210AF03DFC02467B681A603EE0F0
:10371000FFF728FD022300930023802210210AF0E6
:1037200030FC02467B681A6031E0FFF71BFD022384
:1037300000930023802210210AF023FC02467B68BC
:103740001A6024E0FFF70EFD02230093002380227D
:1037500010210AF016FC02467B681A6017E0FFF79A
:1037600001FD022300930023802210210AF009FCAE
:1037700002467B681A600AE07B683A6A1A6006E0D3
:103780007B683A6A1A6002E06FF0850311E07B6A99
:103790001A680D4B1340002B0AD07B681B687A6AAD
:1037A0001268C2F313320132B3FBF2F27B681A6083
:1037B000002318462837BD4680BD00BFAC01002459
:1037C00040787D01006CDC0200F0FFFF80B584B022
:1037D00000AF786039603B68FB60FB681B88C3F30F
:1037E0000B039BB2D32B08D9FB681B88C3F30B03D5
:1037F0009BB2F42B01D8012300E00023012B15D14B
:10380000FB681B88C3F30B039BB21A46104B13448F
:10381000BB60BB681A68FB685B681A40FB685B6842
:103820009A4201D102230FE001230DE0FB681B88BF
:10383000C3F30B039BB218460AF022FC0346002B8D
:1038400001D1022300E0012318461037BD4680BD98
:103850000044025880B586B000AF786000237B61D9
:103860004FF00070FEF7E8FF4FF4801100200AF0DF
:1038700067FB0AF03FFCFFF7D9FCFFF77DFC3861DE
:103880000AF072FC78617B69002B01DA7B693BE00E
:1038900002211F480AF067FBF860FA683B699A4208
:1038A00002D9F86802F0BEFC0020FFF7CDF808202E
:1038B000FFF7DEF84020FFF7EFF84FF48060FFF7E6
:1038C000FFF84020FFF710F94020FFF721F903200F
:1038D000FFF79AF800BFFFF7ABF80346182BFAD1B1
:1038E000FA683B699A4202D8F86802F09BFC0848E3
:1038F0000AF0A4FB00200AF02DFB0020FFF71CF9C2
:10390000044B034A1A607B6918461837BD4680BDD0
:1039100000389C1CAC01002480B582B000AF7860F8
:10392000124B18460AF009FD0346002B01DA7968AC
:1039300017E07B680A2B04D10C4B0D2118460AF0C6
:10394000EDFC0A4A7B68DBB2194610460AF0E6FC39
:1039500006494FF00A024FF0000308460AF0F7FC50
:1039600079680B4618460837BD4680BD904C010863
:1039700080B500AF0348FEF727FE0248FDF7E2FAE4
:1039800000BF80BD1939000880B500AF084B18464C
:103990000AF0A7FC034683F00103DBB2002B02D040
:1039A0006FF0120302E0FFF7E3FF0023184680BD2B
:1039B000904C010880B584B000AF78607B685B688C
:1039C000FB60124BBB60FB681946B8680AF068FDE3
:1039D0000346002B03D000BF6FF0040311E0FB6827
:1039E0009B680B4A93420BD10A480AF0D8FC034665
:1039F00083F00103DBB2002B02D06FF0120300E072
:103A0000002318461037BD4680BD00BFD04A0108CC
:103A100000080240584C010880B487B000AFF8603D
:103A2000B9607A60FB687B610C4ABB6813441B7801
:103A30001A467B6913445A68094B13400749BA6810
:103A40000A44127811467A690A4411467A68134387
:103A50004B6000BF1C37BD4680BC70470466010840
:103A60000000FFFF80B485B000AF786039607B68EC
:103A7000FB60074A3B6813441B781A46FB681344F3
:103A80005B689BB218461437BD4680BC704700BFC8
:103A90000466010880B485B000AF786039607B6847
:103AA000FB600B4A3B6813441B781A46FB681344BF
:103AB0005B6907493A680A4412781146FA680A4471
:103AC00023F00403536100BF1437BD4680BC704728
:103AD0000466010880B485B000AF786039607B6807
:103AE000FB600B4A3B6813441B781A46FB6813447F
:103AF0005B6907493A680A4412781146FA680A4431
:103B000043F00403536100BF1437BD4680BC7047C7
:103B10000466010880B487B000AFF860B9607A60CD
:103B2000FB687B61074ABB6813441B781A467B69B4
:103B300013441A467B68D36000BF1C37BD4680BC67
:103B4000704700BF0466010880B487B000AFF8601A
:103B5000B9607A60FB687B61074ABB6813441B78D5
:103B60001A467B6913441A467B68936000BF1C3772
:103B7000BD4680BC704700BF0466010880B485B0B4
:103B800000AF786039607B68FB600B4A3B68134488
:103B90001B781A46FB6813441B6807493A680A44B5
:103BA00012781146FA680A4443F00803136000BF14
:103BB0001437BD4680BC70470466010880B485B0E8
:103BC00000AF786039607B68FB600B4A3B68134448
:103BD0001B781A46FB6813441B6807493A680A4475
:103BE00012781146FA680A4443F00403136000BFD8
:103BF0001437BD4680BC70470466010880B485B0A8
:103C000000AF786039607B68FB600B4A3B68134407
:103C10001B781A46FB6813441B6807493A680A4434
:103C200012781146FA680A4443F01003136000BF8B
:103C30001437BD4680BC70470466010880B485B067
:103C400000AF786039607B68FB600B4A3B681344C7
:103C50001B781A46FB6813441B6807493A680A44F4
:103C600012781146FA680A4423F01003136000BF6B
:103C70001437BD4680BC70470466010880B485B027
:103C800000AF786039607B68FB600B4A3B68134487
:103C90001B781A46FB6813445B6907493A680A4473
:103CA00012781146FA680A4423F08003536100BF7A
:103CB0001437BD4680BC70470466010880B485B0E7
:103CC00000AFC7E900013B68FB60FB680933044AA9
:103CD000A2FB0323DB0818461437BD4680BC70479F
:103CE000CDCCCCCC80B483B000AF03463960FB713F
:103CF000FB79032B1DD801A252F823F00D3D0008DB
:103D0000153D00081F3D0008293D00083B680022C2
:103D10001A6012E03B684FF480321A600DE03B6895
:103D20004FF400321A6008E03B684FF440321A60EA
:103D300003E000BF6FF0150300E0002318460C37C6
:103D4000BD4680BC704700BF80B59EB000AFF86034
:103D5000B9607A60FB685B68FB65FB6D1B69BB65DE
:103D600007F1100318460EF04DFDBB68013BBB6028
:103D7000FB6D5B69BA689A4203D300BF6FF015030D
:103D80003FE2FB6DDA69BB685B0113443B663B6E47
:103D90009B7ADBB2002B03D000BF6FF00F0330E241
:103DA000B968B86D0AF02EFE0346002B03D000BFA1
:103DB0006FF00F0325E2B968F8680AF0FAFC7B6837
:103DC0005B8803F4FE539BB2B3F5FE5F12D13B6EEA
:103DD00001229A723B6E01225A727B689A693B6E8D
:103DE0009A617B685A693B6E5A613B6E00221A7772
:103DF000002306E27B681B695B69B3F5803F03D350
:103E000000BF6FF01503FCE17B685B7803F00703EC
:103E1000DBB2002B0AD1FB6D1B7B83F00103DBB20D
:103E2000002B03D000BF6FF08503EAE17B68DA88DE
:103E30007B689B889A4203D000BF6FF01503E0E1D6
:103E40007B689B88042B0BD07B689B88022B07D058
:103E50007B689B88012B03D000BF6FF01503D0E176
:103E60007B681B691B7FC3F38013DAB27B681B6915
:103E70001B7FC3F3C013DBB29A4203D000BF6FF0C5
:103E80001503BEE13B6E01229A727B689A693B6E14
:103E90009A617B685B78C3F30203DBB21A463B6E20
:103EA0001A607B685A693B6E5A617B689B881A4628
:103EB0003B6EDA607B68DB881A463B6E1A617B6872
:103EC0001B691B7FC3F38013DAB23B6E1A777B68E2
:103ED0001B691B68002B7B681B695B68002B7B6878
:103EE0009B887B657B6D93FAA3F2B2FA82F2002B7A
:103EF00001D14FF0FF32531C013B7B667B68DB88AE
:103F00007B677B6F93FAA3F2B2FA82F2002B01D1A6
:103F10004FF0FF32531C013BBB663B6E1B68012B0D
:103F200012D17B681B691B687B617B681B695B68BE
:103F30003B61834A7B6E52F82330FB62814ABB6E41
:103F400052F82330BB6211E07B681B691B683B6140
:103F50007B681B695B687B617A4A7B6E52F8233011
:103F6000BB62774ABB6E52F82330FB620023A7F88E
:103F70006C300023A7F86E307B689B78C3F3030393
:103F8000DBB21A4607F11003283319461046FFF733
:103F9000A9FE38673B6F002B01DA3B6F31E17B688C
:103FA0005B78C3F30203DBB21A4607F11003083350
:103FB000194610460AF0B4FC38673B6F002B01DA53
:103FC0003B6F1EE17B685B78C3F30203DBB2022B1D
:103FD00006D0022B26DC002B02D0012B11D021E0D1
:103FE0007B681B691B7FC3F30113DBB2A7F86C303E
:103FF0007B681B691B7FC3F38103DBB2A7F86E30BC
:1040000014E07B681B691B7FC3F38103DBB2A7F855
:104010006C307B681B691B7FC3F30113DBB2A7F80D
:104020006E3003E000BF6FF01503EAE0B7F86C30C4
:10403000DAB207F110031433194610460AF096FC61
:1040400038673B6F002B01DA3B6FDAE000BFB7F84F
:104050006E30DAB207F110031033194610460AF039
:10406000ABFC38673B6F002B01DA3B6FC9E000BF48
:104070003B6E1B7F002B03D04FF48073FB6101E08C
:104080000023FB613B6E1B68022B0CBF0123002346
:10409000DAB23B6E1A727B681B897A689288B3FB2E
:1040A000F2F101FB02F29B1A9BB2002B03D000BF7E
:1040B0006FF01503A5E07B685B897A68D288B3FB53
:1040C000F2F101FB02F29B1A9BB2002B03D000BF5E
:1040D0006FF0150395E03B6E1B7A1946786800F087
:1040E00069FA03467B643B6E1B7A1946786800F0D8
:1040F000B5FA0346BB647B681B695B7FC3F30303AC
:10410000DBB2184600F0FEFA03463B6407F11003E9
:1041100018460BF012FB0346002B02D00423FB636E
:1041200001E00023FB633B6E1B7A002B0CD07B6805
:104130001B695B697A689288B3FBF2F33B630BE01F
:104140000C660108186601087B681B695B697A6860
:10415000D288B3FBF2F33B637B681B787B63B86860
:1041600000F076F9014607F110031A46B86D0EF01B
:10417000E9FAB86800F06CF903461946B86DFFF724
:104180001DFD3B6E1B7F83F00103DBB2002B03D1CF
:104190003B6E9B69002B07D0B86800F059F90346C5
:1041A0001946B86DFFF72AFD3B6E1B7F002B0BD025
:1041B0003B6E9B69002B07D0B86800F049F90346B5
:1041C0001946B86DFFF7DAFCFB6B042B08D1B86811
:1041D00000F03EF903461946B86DFFF77BFC07E097
:1041E000B86800F035F903461946B86DFFF752FC80
:1041F000B86800F02DF903461946B86DFFF73EFD8B
:104200003B6F18467837BD4680BD00BF80B586B08D
:1042100000AF78607B685B683B61204BFB603B696B
:104220001946F8680AF099FA0346002B03D000BF3C
:104230006FF004032EE03B699B6878689847002381
:104240007B6115E03B69DA697B695B0113440022FD
:104250009A723B691B7E1A467B69D1183B69DA6901
:104260007B695B0113440A465A607B6901337B61B9
:104270003B695B697A699A42E4D37B681B690022D7
:104280001A607B681B6900225A607B681B690022E8
:104290009A60002318461837BD4680BDD04A0108F1
:1042A00080B485B000AF786039607B68FB600B4AF2
:1042B0003B6813441B781A46FB6813441B68074984
:1042C0003A680A4412781146FA680A4443F0010336
:1042D000136000BF1437BD4680BC704744660108B8
:1042E00080B485B000AF786039607B68FB600B4AB2
:1042F0003B6813441B781A46FB6813441B68074944
:104300003A680A4412781146FA680A4423F0010315
:10431000136000BF1437BD4680BC70474466010877
:1043200080B485B000AF786039607B68FB600A4A72
:104330003B6813441B781A46FB6813441B6803F060
:104340000103012B01D1012300E00023184614379B
:10435000BD4680BC704700BF4466010880B485B08C
:1043600000AF786039607B68FB600B4A3B681344A0
:104370001B781A46FB6813445B6907493A680A448C
:1043800012781146FA680A4423F08003536100BF93
:104390001437BD4680BC70474466010880B485B0C0
:1043A00000AF786039607B68FB600A4A3B68134461
:1043B0001B781A46FB6813441B6803F00803082B9C
:1043C00001D1012300E0002318461437BD4680BC0C
:1043D000704700BF4466010880B485B000AF7860C4
:1043E00039607B68FB600A4A3B6813441B781A46B5
:1043F000FB6813441B6803F01003102B01D1012349
:1044000000E0002318461437BD4680BC704700BF4B
:104410004466010880B485B000AF786039607B687D
:10442000FB600A4A3B6813441B781A46FB68134436
:104430005B6903F08003802B01D1012300E000239E
:1044400018461437BD4680BC704700BF446601085B
:1044500080B483B000AF7860044A7B6852F82330A0
:1044600018460C37BD4680BC704700BF4C6601083B
:1044700080B582B000AF78603960054A3B6852F879
:1044800023307868984700BF0837BD4680BD00BF1D
:104490006C66010880B582B000AF78603960054A6B
:1044A0003B6852F823307868984700BF0837BD460C
:1044B00080BD00BF8C66010880B582B000AF786017
:1044C0003960084A3B6852F82330786898470346B9
:1044D000002B14BF01230023DBB218460837BD466A
:1044E00080BD00BFAC66010880B582B000AF7860C7
:1044F0003960084A3B6852F8233078689847034689
:10450000002B14BF01230023DBB218460837BD4639
:1045100080BD00BFCC66010880B582B000AF786076
:104520003960054A3B6852F823307868984700BFE5
:104530000837BD4680BD00BFEC66010880B582B07B
:1045400000AF78603960054A3B6852F823307868DC
:10455000984700BF0837BD4680BD00BF0C67010803
:1045600080B582B000AF78603960054A3B6852F888
:1045700023307868984700BF0837BD4680BD00BF2C
:104580002C67010880B582B000AF78603960084AB6
:104590003B6852F82330786898470346002B14BFD5
:1045A00001230023DBB218460837BD4680BD00BF9B
:1045B0004C67010880B487B000AF78600B46FB7091
:1045C000FB78002B06D07B68DB883B617B685B89CE
:1045D0007B6105E07B689B883B617B681B897B6115
:1045E0007A693B69B2FBF3F3FB60FB68013B0F2B7D
:1045F0002DD801A252F823F0394600084F46000892
:104600004F4600083D4600084F4600084F46000848
:104610004F460008434600084F4600084F46000832
:104620004F4600084F4600084F4600084F46000816
:104630004F4600084946000800230AE04FF40003F3
:1046400007E04FF0807304E04FF0C07301E000BF5B
:10465000002318461C37BD4680BC704780B487B025
:1046600000AF78600B46FB70FB78002B06D07B68B0
:104670009B883B617B681B897B6105E07B68DB88ED
:104680003B617B685B897B617A693B69B2FBF3F3D1
:10469000FB60FB68013B0F2B2DD801A252F823F0E1
:1046A000E1460008F7460008F7460008E54600081E
:1046B000F7460008F7460008F7460008EB460008F2
:1046C000F7460008F7460008F7460008F7460008D6
:1046D000F7460008F7460008F7460008F1460008CC
:1046E00000230AE04FF4001307E04FF4800304E0D6
:1046F0004FF4C00301E000BF002318461C37BD463D
:1047000080BC704780B483B000AF0346FB80FB8859
:10471000032B13D801A252F823F000BF2D47000845
:10472000314700083547000839470008002307E0F3
:10473000012305E0022303E0032301E000BF00237F
:1047400018460C37BD4680BC704700BF80B400AF30
:10475000034B1B689BB21846BD4680BC704700BF28
:1047600080E8F11F80B489B000AF78607B681B6976
:104770001B68BB60274B3B61264BFB60BB681B691A
:104780007B617B6903F0C063002B05D0BB681B6EA7
:10479000C3F30E03BB6100BFBB681F4A5A617A694D
:1047A000FB681340002B03D000BF6FF004032CE024
:1047B000BB68D3F810317B617B6903F00643002BA3
:1047C00006D0BB68D3F86031C3F30E03FB6100BFB2
:1047D000BB68124AC3F814217A693B691340002B65
:1047E00012D07A690E4B1340002B09D0BB68D3F866
:1047F00014210B4B1343BA68C2F81431002304E0B0
:1048000000BF6FF0040300E0002318462437BD46C4
:1048100080BC70470000EE150F00EF1F0F00EF9FE8
:104820000000088080B586B000AF78601B4A4FF06A
:10483000000307F10801084610F039F80023FB7562
:104840007868FFF78FFF38613B69002B0FDA6FF054
:1048500004011EE0FB7D002B03D000BF6FF00401BC
:1048600017E0D7E902010BF053F80346FB757B68AC
:104870001B691B681B6903F00403002BEAD17B68EA
:104880001B691B68D3F8103103F00403002BE1D13E
:1048900000210B4618461837BD4680BD8038010000
:1048A00090B48EB000AFF860B9607A60BB681B69E5
:1048B0001B687B637B683B633E4BBB624FF00043EE
:1048C0007B62BB6A3B623B6A1A687B6A1340B3F146
:1048D000004F0CBF0123002387F82F307B685B0C4F
:1048E0003B613B6BB3F5801F0FD297F82F3083F0FD
:1048F0000103DBB2002B08D001237B617B6B0C33FF
:10490000BB617B6B1033FB6147E03B6BB3F5801FF2
:1049100011D397F82F30002B0DD03B69083B3B613A
:1049200001237B617B6B03F58673BB617B6B03F5B6
:104930008873FB6131E03B6BB3F5801F0CD297F8B5
:104940002F30002B08D002237B617B6B0C33BB61C3
:104950007B6B1033FB6120E03B6BB3F5801F14D3FE
:1049600097F82F3083F00103DBB2002B0DD03B69A9
:10497000083B3B6102237B617B6B03F58673BB6164
:104980007B6B03F58873FB6107E000233B61002329
:104990007B610023BB610023FB61FB681C4607F1C0
:1049A00010030FCB84E80F00F8683837BD4690BC81
:1049B000704700BF1820005280B588B000AF786003
:1049C000396007F10C033A6879681846FFF768FF09
:1049D0003B69002B03D100BF6FF0150338E07B6902
:1049E0001B6803F00103002B02D06FF004032FE0DB
:1049F0007868FFF717FFF861FB69002B01DAFB69A4
:104A000026E07B691A687B6922F4E0621A607B69A0
:104A10001A68FB681B0203F4E0631A437B6942F0E7
:104A200004021A607B691A687B6942F080021A608E
:104A3000BFF34F8F00BF00BF00BF7868FFF7F2FEE3
:104A4000F8617B6919687A69034B0B401360FB6955
:104A500018462037BD4680BDFBF8FFFF80B584B007
:104A600000AF78600B46FB707B681B691B68BB60FE
:104A70000023FB60FB78002B08D07868FFF7D2FE9C
:104A8000F860FB68002B01D0FB6834E0FB78002B5A
:104A900006D0BB68DB6843F00102BB68DA600BE05C
:104AA000BB68DB6803F00103002B05D0BB68144A28
:104AB0005A60BB68134A5A60FB78002B08D0BB6869
:104AC000D3F80C3143F00102BB68C3F80C210EE0AF
:104AD000BB68D3F80C3103F00103002B07D0BB688F
:104AE000074AC3F80421BB68064AC3F80421FB78CF
:104AF000002B00BFFB6818461037BD4680BD00BFC5
:104B000023016745AB89EFCD80B489B000AFF86071
:104B1000B9607A601A4B5B6903F48033002B28D0AC
:104B2000BB6803F100631A467B68FA61BB61BB692D
:104B3000002B20DDFB6903F01F02BB6913447B617E
:104B4000FB693B61BFF34F8F00BF0D4A3B69C2F861
:104B50005C323B6920333B617B69203B7B617B6935
:104B6000002BF2DCBFF34F8F00BFBFF36F8F00BF8E
:104B700001E000BF00E000BF2437BD4680BC7047A5
:104B800000ED00E080B588B000AFF860B9607A60F1
:104B9000BA68274B1340FB61BA687B681344254A07
:104BA0001A44234B1340FA699B1A7B6101237A68EC
:104BB000B968F8680AF083FF034683F00103DBB2AB
:104BC000002B03D000BF6FF015032CE07B68002B97
:104BD00001D1002327E0F8680AF049FF00BF002157
:104BE000F868FFF73BFFB861BB69002B0CD1BB68CD
:104BF0007A681946F8680AF07EFFB8617A69F9693F
:104C0000F868FFF781FF00E000BF0121F868FFF7B7
:104C100025FF3861BB69002B01D13B69BB61F86896
:104C20000AF03CFFBB6918462037BD4680BD00BF77
:104C30000000FEFFFEFF010080B58CB000AFF86001
:104C4000B9607A603B6000233A68B968F8680AF096
:104C500036FF034683F00103DBB2002B03D000BF15
:104C60006FF0150359E03B68002B01D1002354E09D
:104C700000BFEFF31183BB61BB697B6110233B6114
:104C80003B6983F3128800BFBFF36F8F00BF7B695E
:104C9000FB620123FB61FB6983F3138800BF214B97
:104CA0005B69204A43F480735361BFF34F8F00BFA9
:104CB00000BF00BFBFF36F8F00BF00BF00BFBB6866
:104CC00003F100633A6819467868FBF705FB002397
:104CD0003B623B6A83F3138800BF124B5B69114A46
:104CE00023F480735361BFF34F8F00BF00BF00BF39
:104CF000BFF36F8F00BF00BF00BFFB6ABB62BB6A20
:104D00007B627B6A83F3118800BFBFF36F8F00BFA4
:104D100000BFF868FFF726FD034618463037BD464A
:104D200080BD00BF00ED00E080B483B000AF7860CC
:104D3000024B18460C37BD4680BC70476C670108B3
:104D400080B485B000AFF860B9607A600A4B1B6828
:104D5000002B06D1084B10221A60074B4FF400328B
:104D60005A607B6801221A60BB68034A1A6000BF60
:104D70001437BD4680BC7047A815002480B485B0A8
:104D800000AFF860B9607A603B60FB681A680A4B54
:104D900013407968BA680A431A43FB681A60FB68D3
:104DA0005B6823F440523B681A43FB685A6000BFBB
:104DB0001437BD4680BC7047FFE9FFEF80B487B071
:104DC00000AFF860B9607A603B607B680B2B3CD821
:104DD0003B6A002B39D03B68B3F5004F22D17B688A
:104DE000DBB21A461B4B53F82230BA68B2FBF3F31E
:104DF0005A003B6A5B081A443B6AB2FBF3F39BB26E
:104E00007B617A694FF6F07313403B617B695B0805
:104E10009BB203F007033A6913433B61FB683A69AD
:104E2000DA6012E07B68DBB21A460A4B53F8223094
:104E3000BA68B2FBF3F23B6A5B081A443B6AB2FB06
:104E4000F3F39BB21A46FB68DA6000BF1C37BD461D
:104E500080BC70477867010880B58AB000AF786081
:104E600039607B685B687B627B6A1B683B627B683E
:104E70001B69FB61FB691B68BB613B681B791846BA
:104E80000CF046F978613B685B791946786A0CF05A
:104E90006CF938613B689A793B681B791946104672
:104EA0000CF0A1F9F8603B681B79032B03D03B6839
:104EB0001B79042B02D16FF0850391E03B681B79CD
:104EC000002B06D03B689B79042B02D16FF0850341
:104ED00086E038690CF068F903461A463B685B794E
:104EE0009A4202D06FF085037AE07969F8680CF095
:104EF0009FF903461A463B689B799A4202D06FF0AD
:104F000085036DE03B68DB79002B52D03B68DB7991
:104F1000012B23D13B6A344A93424AD03B6A334A3D
:104F2000934246D03B6A324A934242D03B6A314A6E
:104F300093423ED03B6A304A93423AD03B6A2F4A72
:104F4000934236D03B6A2E4A934232D03B6A2D4A76
:104F500093422ED03B6A2C4A93422AD03B68DB799D
:104F6000032B23D13B6A204A934222D03B6A1F4A3B
:104F700093421ED03B6A1E4A93421AD03B6A1D4A96
:104F8000934216D03B6A1C4A934212D03B6A1B4A9A
:104F900093420ED03B6A1A4A93420AD03B6A194A9E
:104FA000934206D03B6A184A934202D06FF08503C1
:104FB00016E0386A0BF0C8F9396878680CF084F9A3
:104FC0000346002B02DA6FF0850309E0386A0BF024
:104FD000ACF9BB693A6892E8030083E80300002358
:104FE00018462837BD4680BD0010014000440040EF
:104FF00000480040004C00400050004000140140B8
:1050000000780040007C0040000C005880B582B061
:1050100000AF78603960054A396878680CF044FA66
:10502000034618460837BD4680BD00BF8F150108EE
:1050300080B582B000AF78600B46FB70FB789BB206
:10504000044A194678680CF056FA00BF0837BD4686
:1050500080BD00BFAF15010890B585B000AFF86006
:10506000B9607A60F8680BF0EEFF0446F8680BF060
:10507000A4FF0346194620460CF0DAF80346042B39
:1050800002D16FF0850306E0054B7A68B968F868CD
:105090000CF008FB034618461437BD4690BD00BF10
:1050A0003D17010890B585B000AFF860B9607A602F
:1050B000F8680BF0C8FF0446F8680BF07EFF034663
:1050C000194620460CF0B4F80346042B02D16FF0C9
:1050D000850306E0054B7A68B968F8680CF042FB76
:1050E000034618461437BD4690BD00BFC7170108D8
:1050F00080B584B000AF78607B685B68FB60FB685C
:105100001B68BB60B8680BF0C6FCBB68144A9342CE
:105110001BD0BB68134A934217D0BB68124A934214
:1051200013D0BB68114A93420FD0BB68104A934218
:105130000BD0BB680F4A934207D0BB680E4A93421C
:1051400003D0BB680D4A934202D1B8680BF094FCBF
:10515000B8680BF051FC00BF1037BD4680BD00BFE2
:10516000001001400044004000480040004C004056
:10517000005000400014014000780040007C0040D6
:1051800080B584B000AF78607B685B68FB60FB68CB
:105190001B68BB60B8680BF04FFDBB68144A9342B4
:1051A0001BD0BB68134A934217D0BB68124A934284
:1051B00013D0BB68114A93420FD0BB68104A934288
:1051C0000BD0BB680F4A934207D0BB680E4A93428C
:1051D00003D0BB680D4A934202D1B8680BF01DFDA5
:1051E000B8680BF0DAFC00BF1037BD4680BD00BFC9
:1051F000001001400044004000480040004C0040C6
:10520000005000400014014000780040007C004045
:105210002DE9B04F86B000AFF860B9607A60F868E9
:105220000BF062FD0346002B09D0F8680BF081F902
:10523000F8680BF0D2FCF8680BF071FB05E0F86839
:105240000BF04BFCF8680BF045FB7B68B3F1FF3FBC
:1052500035D07B68DA179A469346BB680022984699
:10526000914608FB0BF20AFB09F31344AAFB08451D
:105270002B441D46194A4FF0000320462946FBF7F0
:10528000C5F802460B46C7E90423D7E90423012BDE
:1052900017D23B691946F8680BF079F9F8680BF0FA
:1052A00088F90346002B0ED000BFF8680BF037FBDF
:1052B000F8680BF0C1FBF8680BF02CF90AE000BFAE
:1052C00002E000BF00E000BFF8680BF003FBF868E5
:1052D0000BF032FB1837BD46BDE8B08F40420F00DF
:1052E00080B586B000AF78607B685B687B617B6966
:1052F0001B683B617B681B69FB60FB687A68DA604E
:10530000FB689B69002B0DD0FB689B6918460AF06F
:10531000D9FE034683F00103DBB2002B02D06FF00D
:10532000120306E1FB68D3F8B030002B0ED0FB6807
:10533000D3F8B03018460AF0C5FE034683F00103E7
:10534000DBB2002B02D06FF01203F2E078680CF0B1
:1053500078FD78680CF04DFDFB6878337749184686
:105360000EF016FBFB6803F58873754918460EF0BE
:105370000FFBFB68443320220021184604F0C2FCD6
:10538000012138690BF04BFD0246FB685A64FB684B
:1053900000229A64FB6893F83D30002B07D0FA682E
:1053A00092F8603023F00C0382F8603007E0FA686E
:1053B00092F86030022161F3830382F86030FB6869
:1053C00093F83E30002B07D0FA6892F8603023F053
:1053D000300382F8603007E0FA6892F8603002210A
:1053E00061F3051382F86030FB6893F82330C3F350
:1053F0004013D9B2FA6892F8603061F3861382F8EC
:105400006030FB6893F82330C3F34013D9B2FA68D5
:1054100092F8603061F3C71382F86030FB681B6C50
:1054200003F00F03D9B2FA6892F8613061F3030315
:1054300082F86130FB6803F14402FB681A63FB6881
:105440007A685A63FB680022C3F84821FB6800228F
:10545000C3F84C21FB68DC3320220021184604F0FD
:1054600051FC002138690BF0DAFC0246FB68C3F8F6
:10547000E020FB680022C3F8DC20FB6893F8D530FD
:10548000002B07D0FA6892F8F83023F00C0382F86A
:10549000F83007E0FA6892F8F830022161F38303EC
:1054A00082F8F830FB6893F8D630002B07D0FA6802
:1054B00092F8F83023F0300382F8F83007E0FA6809
:1054C00092F8F830022161F3051382F8F830FB6896
:1054D00093F8BB30C3F34013D9B2FA6892F8F830AE
:1054E00061F3861382F8F830FB6893F8BB30C3F39E
:1054F0004013D9B2FA6892F8F83061F3C71382F812
:10550000F830FB68D3F8D83003F00F03D9B2FA684B
:1055100092F8F93061F3030382F8F930FB6803F184
:10552000DC02FB68C3F8C820FB687A68C3F8CC20AB
:10553000002318461837BD4680BD00BFBD230108B3
:105540004D24010880B586B000AF78607B685B6849
:105550007B617B691B683B617B681B69FB60FB6847
:105560001B68BB6038690AF0EFFE7B699B681846D0
:105570000AF0A8FD034683F00103DBB2002B03D041
:1055800000BF6FF0120393E07B69083318460AF0FE
:10559000ADFE0C2138690AF0F5FEB96878680BF0A9
:1055A00093FE0346002B02DA6FF0150380E07B695F
:1055B0001B7E002B02D038690BF008F87B695B7EFC
:1055C000002B04D04FF4004138690AF06DFF7B696D
:1055D0009B7E002B04D04FF4803138690AF076FFAF
:1055E0007B69DB7E002B04D04FF4003138690AF070
:1055F0007FFF7B691B7F002B40D03B692E4A934283
:1056000023D03B692D4A93421FD03B692C4A9342D9
:105610001BD03B692B4A934217D03B692A4A9342DD
:1056200013D03B69294A93420FD03B69284A9342E1
:105630000BD03B69274A934207D03B69264A9342E5
:1056400003D000BF6FF0150332E0012178680BF042
:105650002EFD7B695B7F194638690AF0D9FF7B69AB
:105660009B7F194638690AF0C0FF7B69DB7F002BFE
:1056700004D04FF4004138690BF00EF87B6993F8C1
:105680002030002B02D038690AF06DFE38690AF02C
:105690004CFE00BF38690BF0C7F80346002BF9D069
:1056A00000BF38690BF0D3F80346002BF9D0002374
:1056B00018461837BD4680BD001001400044004028
:1056C00000480040004C00400050004000140140E1
:1056D00000780040007C0040000C005880B483B08B
:1056E00000AF03463960FB80B7F90630002B0ADBB8
:1056F0003B68DAB20C49B7F906301201D2B20B445A
:1057000083F800230AE03B68DAB20849FB8803F01B
:105710000F03043B1201D2B20B441A7600BF0C37C0
:10572000BD4680BC704700BF00E100E000ED00E036
:1057300080B487B000AF78601C4B9B687B611B4BCB
:105740001B68FB60194B9B683B617B68002B02D098
:105750007B683A691A607B69002B02D1144B1B6885
:105760007B613B69002B02D1114B1B683B61FB68DD
:1057700003F48033002B03D17A693B699A4208D243
:105780000C4B1A680A4B1B6813440A4A1360074BF8
:105790001B68074B1A683B69D21A064B1B681344F7
:1057A00018461C37BD4680BC704700BF10E000E0C3
:1057B000C0150024CC15002480B500AF0020FFF7F1
:1057C000B7FF0246024B1B681344184680BD00BF5A
:1057D000C815002480B586B000AF786007F10803D3
:1057E0001846FFF7A5FF78611B4B1B683B611B4BFD
:1057F0001A687B691344194A1360194B00221A6016
:10580000154A7B681360174B9B68FB60154A7B68E1
:10581000013B5360134B00229A60134B4FF0007210
:105820005A60BB68FA689A420AD93A69FB68D21A88
:10583000BB681A44094B1B681344084A136007E00D
:10584000BA68FB68D21A054B1B681344034A1360FD
:1058500000BF1837BD4680BDC0150024C815002400
:10586000CC15002410E000E000ED00E080B582B02F
:1058700000AF084BD3E90023104619460CF0E2FEB6
:1058800078607B68044AA2FB03239B0A184608370A
:10589000BD4680BD680B0024F11976052DE9B04F97
:1058A00088B000AF78603449096800208846814696
:1058B0003249D1E9000118EB000249EB0103796894
:1058C00000200C46054612EB040A43EB050BC7E922
:1058D00004AB2B4BD3E90023D7E90401994208BF5D
:1058E000904242D02649D7E90423C1E9002340F27F
:1058F0005D13FB617A68FB699A420BD8FA697B6891
:10590000D21A1D4B1B689A4204D31B4B1B687A6842
:105910001344FB61FB694BF6803202FB03F3FB602F
:10592000184BD3E90023104619460CF08BFEB860E3
:10593000FA68BB689A4203D9FA68BB68D31A00E0D8
:105940000023BB61104B1B68BA699A4209D20F4B06
:105950001B78002B0BD10D4B01221A700A4B1B68D0
:10596000BB61B869FFF736FF02E000BF00E000BF8F
:105970002037BD46BDE8B08FD0150024700B002441
:1059800050010024680B0024C415002415160024BF
:1059900080B500AFFFF76AFF0346054A1360044B6A
:1059A0001B6818460CF05CFE0346184680BD00BF1D
:1059B000D01500242DE9B04F86B000AFF860FFF796
:1059C00055FF78617B694BF6803202FB03F30022BE
:1059D000984691461A4BD3E9002318EB020139602F
:1059E00049EB03037B60164BD7E90012C3E90012B1
:1059F0007B6900221C461546124BD3E9002314EBA9
:105A0000020A45EB030B0F4BC3E900AB0E4B002220
:105A10001A600E494FF0FF324FF0FF33C1E9002307
:105A20000B4B00221A7078690CF01AFE0346F968D5
:105A3000184604F05FF800BF1837BD46BDE8B08FC8
:105A4000680B0024700B0024D015002450010024A2
:105A5000151600242DE9B04382B000AFFFF7ACFE6D
:105A60000346104AA2FB03239B0A7B607B6800224B
:105A7000984691460C4BC3E900897B684BF680320F
:105A800002FB03F300221C461546084BC3E9004500
:105A9000074B00221A600120FFF700FF0837BD46C0
:105AA000BDE8B083F1197605700B0024680B002463
:105AB000D0150024684620F007018D4681B583B0DB
:105AC00000AF0CF090FD03467B600020FFF730FE36
:105AD0000A4B1A680A4B1B681344094A1360074BA8
:105AE00000221A607868FFF765FFFCF7E7F900BF4E
:105AF0000C37BD46BDE8814085467047CC15002473
