:020000040804EE
:10000000C019002465600408F75B05085160040806
:1000100051600408516004085160040800000000A9
:10002000000000000000000000000000D96004088B
:100030005160040800000000E1630408F5A504080D
:10004000996404089964040899640408996404088C
:10005000996404089964040899640408996404087C
:10006000996404089964040899640408996404086C
:10007000996404089964040899640408996404085C
:10008000996404089964040899640408996404084C
:10009000996404089964040899640408996404083C
:1000A000996404089964040899640408996404082C
:1000B000996404089964040899640408996404081C
:1000C000996404089964040899640408996404080C
:1000D00099640408996404089964040899640408FC
:1000E00099640408996404089964040899640408EC
:1000F00099640408996404089964040899640408DC
:1001000099640408996404089964040899640408CB
:1001100099640408996404089964040899640408BB
:1001200099640408996404089964040899640408AB
:10013000996404089964040899640408996404089B
:10014000996404089964040899640408996404088B
:10015000996404089964040899640408996404087B
:10016000996404089964040899640408996404086B
:10017000996404089964040899640408996404085B
:10018000996404089964040899640408996404084B
:10019000996404089964040899640408996404083B
:1001A000996404089964040899640408996404082B
:1001B000996404089964040899640408996404081B
:1001C000996404089964040899640408996404080B
:0C01D00099640408996404089964040808
:1002000030B490F800F020F007016FF0000C10F00F
:10021000070491F820F040F048804FF000046FF0A0
:100220000700D1E9002391F840F000F1080082FABC
:100230004CF2A4FA8CF283FA4CF3A2FA8CF34BBB87
:10024000D1E9022382FA4CF200F10800A4FA8CF200
:1002500083FA4CF3A2FA8CF3E3B9D1E9042382FACE
:100260004CF200F10800A4FA8CF283FA4CF3A2FAE3
:100270008CF37BB9D1E9062301F1200182FA4CF21B
:1002800000F10800A4FA8CF283FA4CF3A2FA8CF382
:10029000002BC6D0002A04BF04301A4612BAB2FAA4
:1002A00082F200EBD20030BC7047D1E9002304F0A9
:1002B0000305C4F100004FEAC50514F0040F91F8DE
:1002C00040F00CFA05F562EA05021CBF63EA05037B
:1002D00062464FF00004AAE70000000000000000A2
:1002E00002780B78012A28BF9A4240F0D8806DE945
:1002F000044540EA0104CDE902676FF0000C4FEAC3
:1003000044721AB380EA010414F0070F6BD100F0B5
:10031000070420F0070004F0030521F007014FEA6D
:10032000C505F0E8042314F0040FF1E804670CFAA3
:1003300005F462EA040266EA04060BD063EA0403E9
:10034000624667EA0407664604E000BFF0E804235B
:10035000F1E8046782FA4CF582EA0604A4FA8CF408
:100360006CBB83FA4CF583EA0705A5FA8CF595B9C1
:1003700050E9022351E9026782FA4CF582EA060449
:10038000A4FA8CF483FA4CF583EA0705A5FA8CF5F8
:100390002543DBD09CB92DBAB5FA85F424F00704C7
:1003A00027FA04F1DDE9026723FA04F303F0FF0002
:1003B00001F0FF01FDE80445A0EB0100704724BAFD
:1003C000B4FA84F424F0070426FA04F1DDE90267A4
:1003D00022FA04F202F0FF0001F0FF01FDE80445FB
:1003E000A0EB0100704714F0030F3CD110F00304A0
:1003F00028D150F8082B51F8083B82FA4CF582EAD4
:100400000305A5FA8CF55DB950F8042C51F8043CAD
:1004100082FA4CF582EA0305A5FA8CF5002DE8D0A6
:100420002DBAB5FA85F424F0070423FA04F122FA70
:1004300004F202F0FF0001F0FF01FDE80445A0EB2B
:10044000010070474FEAC40420F0030050F8082B65
:1004500021F0030151F8083B0CFA04F462EA0402AB
:1004600063EA0403C9E710F003041DD0A1EB040103
:1004700020F00300E40750F8042B06D012D28B784A
:100480005FFAA2F4E41A06D12BB1CB785FFAB2F48A
:10049000E41A00D133B920465DF8104B7047A2EB47
:1004A0000300704701F1040150F8042BCC0721F040
:1004B000030151F8043B48D824D222F07F4482FA49
:1004C0004CF594EA1325A5FA8CF50AD165B951F8D3
:1004D000043B84EA0204B4EB036F0ED150F8042B02
:1004E000EBE74FEA132355E035F07F454DD108780F
:1004F000FDE80445C0F1000070474FEA126203F0C6
:10050000FF0347E002EA1C4482FA4CF594EA1345E3
:10051000A5FA8CF50AD165B951F8043B84EA0204C6
:10052000B4EB034F0CD150F8042BEBE74FEA134325
:1005300030E015EA1C4528D10B884FEA124229E029
:100540004FEA124203EA1C4324E002F0FF0482FA5D
:100550004CF594EA1365A5FA8CF50AD165B951F802
:10056000043B84EA0204B4EB032F09D150F8042BB6
:10057000EBE74FEA13630DE015F0FF0F05D10B68B1
:100580004FEA122223F07F4304E04FF00000FDE821
:100590000445704712BA1BBA82FA4CF482EA03048B
:1005A000A4FA8CF5B5FA85F402FA04F203FA04F31E
:1005B0004FEA1260FDE80445A0EB1360704700BFEE
:1005C00080EA0102844612F0030F4FD111F0030FAD
:1005D00032D14DF8044D11F0040F51F8043B0BD00B
:1005E000A3F101329A4312F0803F04BF4CF8043B60
:1005F00051F8043B16D100BF51F8044BA3F101326E
:100600009A4312F0803FA4F101320BD14CF8043B25
:10061000A24312F0803F04BF51F8043B4CF8044B56
:10062000EAD023460CF8013B13F0FF0F4FEA3323C7
:10063000F8D15DF8044B704711F0010F06D011F8A6
:10064000012B0CF8012B002A08BF704711F0020F94
:10065000BFD031F8022B12F0FF0F16BF2CF8022B7F
:100660008CF8002012F47F4FB3D1704711F8012BA2
:100670000CF8012B002AF9D1704700BF844641EAEB
:10068000000313F003036DD1403A41D351F8043B0A
:1006900040F8043B51F8043B40F8043B51F8043B5C
:1006A00040F8043B51F8043B40F8043B51F8043B4C
:1006B00040F8043B51F8043B40F8043B51F8043B3C
:1006C00040F8043B51F8043B40F8043B51F8043B2C
:1006D00040F8043B51F8043B40F8043B51F8043B1C
:1006E00040F8043B51F8043B40F8043B51F8043B0C
:1006F00040F8043B51F8043B40F8043B51F8043BFC
:1007000040F8043B51F8043B40F8043B403ABDD26A
:10071000303211D351F8043B40F8043B51F8043B0C
:1007200040F8043B51F8043B40F8043B51F8043BCB
:1007300040F8043B103AEDD20C3205D351F8043B9B
:1007400040F8043B043AF9D2043208D0D2071CBF67
:1007500011F8013B00F8013B01D30B880380604690
:10076000704700BF082A13D38B078DD010F0030306
:100770008AD0C3F10403D21ADB071CBF11F8013B76
:1007800000F8013B80D331F8023B20F8023B7BE7C5
:10079000043AD9D3013A11F8013B00F8013BF9D2F0
:1007A0000B7803704B7843708B788370604670478A
:1007B0007BB972B90029BEBF00204FF0004106E0AE
:1007C00008BF00281CBF6FF000414FF0FF3000F061
:1007D00057B8ADF1080C6DE904CE002909DB002BF8
:1007E0001ADB00F04FF8DDF804E0DDE9022304B085
:1007F0007047404261EB4101002B1BDB00F042F8E7
:10080000DDF804E0DDE9022304B0404261EB410180
:10081000524263EB43037047524263EB430300F0E1
:1008200031F8DDF804E0DDE9022304B0404261EB79
:1008300041017047524263EB430300F023F8DDF8B7
:1008400004E0DDE9022304B0524263EB4303704746
:1008500053B94AB9002908BF00281CBF4FF0FF3127
:100860004FF0FF3000F00CB8ADF1080C6DE904CE8C
:1008700000F008F8DDF804E0DDE9022304B0704779
:10088000704700BF2DE9F0478C468E46089E1546FE
:1008900004461946002B40F0D080724547D9B2FA81
:1008A00082F74FB1C7F120030EFA07FC20FA03F3D9
:1008B000BD4043EA0C0CBC404FEA154EA8B2BCFB4D
:1008C000FEF8230C0EFB18CC08FB00F943EA0C439E
:1008D000994528D9EB1808F1FF3204D2994502D97D
:1008E000A8F102022B44A3EB0903A4B2B3FBFEFC64
:1008F0000EFB1C330CFB00F044EA0344A04214D965
:100900002C190CF1FF3304D2A04202D9ACF102033E
:100910002C44241A43EA02401EB1FC4000233460F8
:100920007360BDE8F0874246DDE76346F1E7002AE1
:1009300079D0B2FA82F3002B3FD01946C1F12003DF
:1009400002FA01F52EFA03F20EFA01FE20FA03F381
:1009500043EA0E034FEA154E00FA01F4B2FBFEFC27
:10096000AFB20EFB1C201A0C0CFB07F842EA004247
:1009700090455AD9AA180CF1FF3004D2904502D9FB
:10098000ACF102002A44A2EB08029BB2B2FBFEFCCF
:100990000EFB1C220CFB07F743EA02439F4246D999
:1009A000EB180CF1FF3204D29F4202D9ACF10202E3
:1009B0002B44DB1B42EA004202E0AEEB02030122C1
:1009C0004FEA154EAFB2B3FBFEFC200C0EFB1C33FE
:1009D0000CFB07F840EA034398452AD9EB180CF1C1
:1009E000FF3004D2984502D9ACF102002B44A3EBAE
:1009F0000803A4B2B3FBFEFC0EFB1C330CFB07F791
:100A000044EA0344A74216D92C190CF1FF3304D24F
:100A1000A74202D9ACF102032C44E41B43EA004094
:100A20000F46114678E71F2188E76046ABE762462C
:100A3000BFE76046DBE76346EFE7734506D916B9C3
:100A4000002108466DE7C6E9000EF9E7B3FA83F71F
:100A500087B9734501D3824207D8841A6EEB03032A
:100A600001209C461EB900215BE73846FAE7C6E93B
:100A7000004CF8E7C7F1200CBB4022FA0CF51D43EF
:100A800020FA0CF12EFA0CF30EFA07FE41EA0E01E1
:100A90004FEA154900FA07F4B3FBF9F81FFA85FE8F
:100AA00009FB18300B0C08FB0EFA43EA00439A4589
:100AB00002FA07F240D9EB1808F1FF3004D29A4548
:100AC00002D9A8F102002B44A3EB0A0389B2B3FBBD
:100AD000F9F809FB183308FB0EFE41EA03418E4585
:100AE0002CD9691808F1FF3304D28E4502D9A8F138
:100AF0000203294443EA0040A0FB0298A1EB0E0147
:100B00004145CE46434602D306D14C4504D2B9EB0B
:100B1000020E68EB05030138002EA4D0B4EB0E02E0
:100B200061EB030101FA0CFC22FA07F34CEA030320
:100B3000F940C6E9003196E74046C5E74346D9E7A4
:100B400080B598B00AAFF860B9607A6011F090FA99
:100B5000C7E90C01BB68012B0AD1D7E90C23CDE909
:100B600000234F4A0821F86813F076F900238CE03F
:100B70007B6804331B6819464A48FFF7B1FB0346FC
:100B8000002B14D07B6804331B6819464648FFF7D6
:100B9000A7FB0346002B0AD07B6804331B68434A3B
:100BA0000121F86813F058F96FF004036DE0D7E9FC
:100BB0000C0139A3D3E90023FFF7FAFD02460B46E7
:100BC000C7E90A23D7E90C0133A3D3E90023FFF7D0
:100BD000EFFDC7E90C23D7E90C01354A4FF00003BC
:100BE000FFF7E6FD02460B46C7E90823D7E90C01EB
:100BF0002F4A4FF00003FFF7DBFDC7E90C23D7E9CD
:100C00000C014EF660224FF00003FFF7D1FD0246C3
:100C10000B46C7E90623D7E90C014EF660224FF0D8
:100C20000003FFF7C5FDC7E90C23D7E90C014FF41A
:100C30007A724FF00003FFF7BBFD02460B46C7E98F
:100C40000423D7E90C014FF47A724FF00003FFF749
:100C5000AFFDC7E90C23D7E90C23CDE90823D7E979
:100C60000423CDE90623D7E90623CDE90423D7E9F8
:100C70000823CDE90223D7E90A23CDE900230D4A51
:100C80000821F86813F0E8F8002318463837BD4605
:100C900080BD00BFAFF30080005C260500000000AF
:100CA000F0DC050804DD050808DD050814DD05088D
:100CB00080EE36002CDD050880B500AF03490448FE
:100CC0000EF0CCFC0023184680BD00BF30DA0508CA
:100CD00054DA050880B584B000AFF860B9607A6076
:100CE000BB68012B07D00B4A0121F86813F0B4F858
:100CF0006FF0150309E00FF067FF074A0221F8685B
:100D000013F0AAF8012000F015FA18461037BD4676
:100D100080BD00BF7CDA050890DA0508B0B5A6B042
:100D200002AF786039600023C7F888300023C7F825
:100D30008C306C4B07F154041D460FCD0FC40FCD02
:100D40000FC495E80F0084E80F0007F13003242258
:100D5000002118460DF0D0FE07F1080328220021DB
:100D600018460DF0C9FE604BC7F8843007F1300318
:100D700003F1100107F1300303F1140207F130030E
:100D80000C3300930B46594978680EF0ADFCC7F858
:100D90008800D7F88830032B02D06FF015039CE051
:100DA00007F13003191D07F1300303F1080207F1C1
:100DB000300300930B464E4938680EF095FCC7F897
:100DC0008800D7F88830032B02D06FF0150384E039
:100DD0007B6C40F2E972934204DD7B6C42F20F724D
:100DE000934202DD6FF0210377E03B6C002B02DDC4
:100DF0003B6C0C2B02DD6FF021036EE03B6C013B82
:100E00003B643B6C9B0090333B4453F83C3CC7F83D
:100E10008C303B6C012B22D17B6C03F00303002B45
:100E20001DD17A6C334B83FB02135911D317CB1AA4
:100E3000642101FB03F3D31A002B0DD17A6C2D4BE7
:100E400083FB0213D911D317CB1A4FF4C87101FBDE
:100E500003F3D31A002B02D11D23C7F88C30FB6B90
:100E6000002B04DDFB6BD7F88C209A4202DA6FF07E
:100E7000210332E0BB6B002B02DBBB6B172B02DDC7
:100E80006FF0210329E07B6B002B02DB7B6B3B2B9C
:100E900002DD6FF0210320E03B6B002B02DB3B6B9C
:100EA0003B2B02DD6FF0210317E07B6CA3F26C7328
:100EB0007B643B6BBB607B6BFB60BB6B3B61FB6B29
:100EC0007B613B6CBB617B6CFB6107F108031946DE
:100ED000D7F884000FF05CFE034618469037BD46F5
:100EE000B0BD00BFA0D90508C0D305089CDA05082D
:100EF000ACDA05081F85EB51B0B594B006AF786049
:100F000007F108032822002118460DF0F5FD144BC7
:100F10007B6300233B6307F108031946786B0FF0EE
:100F200045FE38633B6B002B01DA3B6B14E0FB6939
:100F300003F26C75BB6901337A693969F868BC687A
:100F4000049403900291019200932B46054A0221DA
:100F5000786812F081FF002318463837BD46B0BDCF
:100F6000C0D30508BCDA050880B586B000AFF860CC
:100F7000B9607A6000237B617B681B680322194695
:100F800027480EF0E3F80346002B25D1BB68032B5E
:100F900007D0244A0121F86812F05EFF6FF01503B4
:100FA0003AE07B6804331A687B6808331B6819468B
:100FB0001046FFF7B3FE78617B69002B0ADA7B6984
:100FC0005B4218460EF0BEF80346174A0121F86846
:100FD00012F042FF7B691FE07B681B680322194601
:100FE00012480EF0B3F80346002B13D1F868FFF750
:100FF00083FF78617B69002B0ADA7B695B421846C4
:101000000EF0A0F803460A4A0121F86812F024FF06
:101010007B6901E06FF0150318461837BD4680BDA7
:10102000E4DA0508E8DA050804DB050814DB05083E
:1010300018DB050880B483B000AF7860034A7B6892
:10104000136000BF0C37BD4680BC704758010024B8
:1010500080B582B000AF78603960044B1B68786857
:101060009847034618460837BD4680BD58010024FE
:1010700080B586B000AF7860396007F108030022C0
:101080001A605A609A60DA600223BB72064BFB60FA
:1010900007F108033A68796818460EF0B7FC00BFFC
:1010A0001837BD4680BD00BF5110040880B588B018
:1010B00000AF7860396007F10C0300221A605A60B3
:1010C0009A60DA601A610223BB730A4B3B6107F135
:1010D0000C033A68796818460EF098FCFB69002BFF
:1010E00004D007F10C03184610F046FB00BF203770
:1010F000BD4680BDA117050880B584B000AF7860FB
:1011000039600023FB600AE0094B1B687968FA68C4
:101110000A44127810469847FB680133FB60FA686E
:101120003B689A42F0D300BF00BF1037BD4680BD78
:101130005801002480B586B000AF7860EFF31183CA
:101140007B617B693B611023FB60FB6883F3128842
:1011500000BFBFF36F8F00BF05F0EEF900BF09F0CD
:1011600071FA786814F08AFD024810F05CFB10F008
:101170006CFBFCE778DB050880B582B000AF00F0BF
:101180004DF978607B6801221A607B6801225A6001
:101190007B6800229A607B680022DA607B6800220C
:1011A0001A617B680A4A5A610A4B01221A600A4B8B
:1011B00001221A60094B00221A60094B00221A60B2
:1011C000084B00221A6000BF0837BD4680BD00BF33
:1011D000CCDE05085C0100246001002438070024EF
:1011E0003C0700244007002480B586B000AFF860BB
:1011F000B9607A6000F012F978617B69DB68002BD6
:1012000004D17B695B691B78002B58D17B69002274
:10121000DA607B695B689B00BA6813441A687B6973
:101220005A617B695B68FA689A4207DD7B695B6992
:10123000591C7A6951611B782D2B08D07B69614A52
:101240005A61786900F0C0F84FF0FF33B5E07B6970
:101250005B69591C7A6951611B781A467B699A60EF
:101260007B699B682D2B12D17B695B691B78002BF6
:101270000DD17B695B685A1C7B695A607B69514A56
:101280005A61786900F0A0F84FF0FF3395E07B6970
:101290009B68002B1CD17B694A4A5A612D217868D2
:1012A0000DF0BAFC0346002B05D1786900F08CF8EC
:1012B0004FF0FF3381E07B692D229A6008E07B6963
:1012C0005B69591C7A6951611B781A467B699A607F
:1012D0007B699B68194678680DF09EFC38617B69D4
:1012E0009B683A2B02D03B69002B15D17B695B6967
:1012F0001B78002B04D17B695B685A1C7B695A60A0
:101300007B691B68002B02D07B681B783A2B7869BD
:1013100000F05AF83F2350E03B6901331B783A2B29
:101320000DD07B6900221A617B695B691B78002BF9
:101330003ED17B695B685A1C7B695A6038E07B69E7
:101340005B691B78002B04D07B695A697B691A6141
:1013500026E07B695B685A1C7B695A607B695B6825
:10136000FA689A4208DD7B695B689B00BA6813449F
:101370001A687B691A6113E07B69124A5A617B68BB
:101380001B783A2B04D1786900F01EF83A2314E058
:101390007B691B68002B786900F016F83F230CE08E
:1013A0007B69084A5A617B695B685A1C7B695A6091
:1013B000786900F009F87B699B6818461837BD46C4
:1013C00080BD00BFCCDE050880B582B000AF78607C
:1013D0007B681B680C4A13607B685B680B4A136070
:1013E0007B689B680A4A13607B68DB68094A136064
:1013F0007B681B69084A1360786805F0D3FD00BF5D
:101400000837BD4680BD00BF5C0100246001002498
:10141000380700243C0700244007002480B400AFB4
:10142000024B1846BD4680BC704700BF64010024D3
:1014300080B400AF044B5B68034A43F00103536080
:1014400000BFBD4680BC70470010005C80B400AF98
:10145000044B5B68034A43F00203536000BFBD4680
:1014600080BC70470010005C80B584B000AF78602D
:101470007B680A2B01D900230DE0094A7B6852F8EA
:101480002330FB60F86810F04DFC0346002B01D0C0
:10149000FB6800E0002318461037BD4680BD00BF42
:1014A00024FF050880B586B000AF78600B46FB705E
:1014B000124B7B617B685B683B613B690833FB6077
:1014C000FB78032B11DC022B12DA002B07D0012B47
:1014D0000BD1F968786910F044FC03460AE0F9681A
:1014E000786910F057FC034604E06FF0850301E0D3
:1014F00000BF002318461837BD4680BDA0D105089F
:1015000080B582B000AF78600449786810F06BFC59
:10151000034618460837BD4680BD00BFA514040821
:1015200080B400AF044B1B68034A43F4807313601C
:1015300000BFBD4680BC70470048025880B400AF71
:10154000044B1B68034A23F48073136000BFBD463D
:1015500080BC70470048025880B400AF064B1B683F
:1015600003F48073B3F5807F01D1012300E00023F1
:101570001846BD4680BC70470048025880B58CB004
:1015800000AF204BFB62EFF31183BB62BB6A7B624F
:1015900010233B623B6A83F3128800BFBFF36F8F57
:1015A00000BF7B6A3B60FB6AFB6100BFFB6ABB61FB
:1015B00000BF3B68BB60144B1B68002B07D1FFF7D3
:1015C000AFFF00BFFFF7C8FF0346002BFAD00E4B5A
:1015D0001B6801330C4A1360BB687B60094B7B615D
:1015E0007B683B613B69FB60FB6883F3118800BF4C
:1015F000BFF36F8F00BF00BF00BF00BF3037BD46D5
:1016000080BD00BF440700244407002480B58CB08F
:1016100000AF234BFB62EFF31183BB62BB6A7B62BB
:1016200010233B623B6A83F3128800BFBFF36F8FC6
:1016300000BF7B6A3B60FB6AFB6100BFFB6ABB616A
:1016400000BF3B68BB60174B1B68002B07D1012212
:101650000021154810F07BFC0346002B0AE0114BDB
:101660001B68012B01D1FFF769FF0E4B1B68013B83
:101670000C4A1360BB687B60094B7B617B683B61F4
:101680003B69FB60FB6883F3118800BFBFF36F8F7A
:1016900000BF00BF00BF00BF3037BD4680BD00BFE8
:1016A00044070024440700244807002480B483B082
:1016B00000AF7860064BDB6823F0070204497B68C3
:1016C0001343CB6000BF0C37BD4680BC704700BFE2
:1016D0000048025880B400AF034B1B681B0C9BB240
:1016E0001846BD4680BC70470010005C80B485B0D1
:1016F00000AF4FF00053BB600A4B7B60BB68FB60E0
:1017000005E0FB6800221A60FB680433FB60FA689E
:101710007B689A42F5D300BF00BF1437BD4680BC3A
:10172000704700BF0000022080B586B000AF04F013
:10173000D7FE00BF00BF114B114A1A600220FFF70D
:10174000B5FFFFF7C7FF034641F20302934211D1F1
:101750000C4B7B6101233B617B69FB603B69BB6098
:10176000FB681B687B60FB68B9687A680A431A608B
:1017700000BF00BF00BF1837BD4680BDD8010024A0
:101780000090D0030881005180B483B000AF78602E
:101790007B68044A1A60012318460C37BD4680BC9A
:1017A000704700BF2C00060880B584B000AFF86019
:1017B000B9607A6010F0F8FB0346054A0821F86822
:1017C00012F04AFB002318461037BD4680BD00BF0B
:1017D00094DC050880B485B000AFC7E900013B6820
:1017E000FB60FB680933044AA2FB0323DB081846AD
:1017F0001437BD4680BC7047CDCCCCCC80B586B00C
:1018000000AFF860B9607A6000233B617B68043305
:101810001B6807F110020A21184602F0EFFD7861FB
:101820003B69002B05D17B69184610F0E5FB0023CE
:1018300006E03B69044A0121F86812F00DFB3B69A0
:1018400018461837BD4680BDC4DC050880B584B095
:1018500000AFF860B9607A60054B064A0821F86865
:1018600012F0FAFA002318461037BD4680BD00BFBB
:10187000C4DD0508CCDD050880B584B000AF786014
:101880007B68BB6000233B7307F1080319460448DB
:101890001AF05CFF3B7B18461037BD4680BD00BF89
:1018A000CD20050880B500AF04F014FE0346024ABF
:1018B0009B58184680BD00BF0800000080B598B056
:1018C00004AF786039607B68FB643B68BB64FB6C89
:1018D000D3F8A0307B64F86C1AF0DFF93864FFF7B6
:1018E000E1FF0246FB6C934201D1344A00E0344AE6
:1018F0003B6C002B01D03B6C00E0324B0193FB6C46
:1019000000931346304A0821B86C12F0A5FAFB6C1C
:10191000D3E90823C7E90E23FB6C9B891846FB6CAF
:1019200093F90E301946D7E90E23CDE90223009131
:101930000346264A0821B86C12F08EFA07F10C0310
:1019400020221946F86C0AF0A9F90246FB6C9B6E3E
:10195000009313461E4A0821B86C12F07DFA07F175
:101960002C031946F86C10F0C5FB78637B6B002BD9
:1019700006D07B6B174A0821B86C12F06DFA19E09B
:10198000FB6A7A6CD31A642203FB02F27B6CB2FB13
:10199000F3F33B63FB6AFA6A796C8A1A396B039139
:1019A000796C0291019200937B6C0B4A0821B86C10
:1019B00012F052FA00BF5037BD4680BD48DE050820
:1019C000E4E805084CDE050850DE05085CDE050885
:1019D00088DE0508A0DE0508D0DE050880B586B0E3
:1019E00000AFF860B9607A6010F092FB03463B618B
:1019F00008F044FD7861386910F0A3FB7B69094A5F
:101A00000821F86812F028FA074A0821F86812F04D
:101A100023FAF96805481AF0AAFE00231846183779
:101A2000BD4680BD08DF050828DF0508BD1804088D
:101A300080B58EB006AF786039603B68FB617B682B
:101A4000D3F8A030BB6107F108031946786810F09D
:101A500098FB78617B69002B06D07B69174A0821C7
:101A6000F86912F0F9F926E078681AF016F9386189
:101A7000BB68BA69D31A642203FB02F2BB69B2FBEA
:101A8000F3F3FB603B69002B01D03B6900E00C4B9A
:101A9000BA68B968B869411AF8680590B8690490DD
:101AA00003910292BA69019200937B68054A08216A
:101AB000F86912F0D1F92037BD4680BDA0DE0508D7
:101AC0004CDE050854DF050890B59BB008AFF86000
:101AD000B9607A6007F114032022002118460DF046
:101AE0000BF807F114031A22202118460DF004F810
:101AF000F96828481AF03BFE01233B6400237B640D
:101B00003EE07A6C13465B0113449B01224A134466
:101B1000184610F02BFBF8634FF40063BB6307F12A
:101B200010031A46B96BF86B1AF013FA78637A6CE3
:101B300013465B0113449B01174A9C183B693A69A1
:101B4000B96B8A1A3969B86B411A642001FB00F03D
:101B5000B96BB0FBF1F10691B96B05910492039357
:101B6000BB6B029307F1140301937B6C0093234634
:101B70000A4A0821F86812F06FF97B6C01337B6424
:101B80007B6C3A6C9A42BCD8002318464C37BD4651
:101B900090BD00BF311A0408801B002498DF05089F
:101BA00080B500AF04F096FC0346024A9B581846E5
:101BB00080BD00BF0800000080B586B000AFF860AF
:101BC000B9607A607B6804331B68102200211846D4
:101BD0000DF0AAFD03467B617869FFF74DFE0346D1
:101BE00083F00103DBB2002B08D07B69114A01218D
:101BF000F86812F031F96FF0150317E0FFF7D0FF26
:101C000002467B69934207D10B4A0121F86812F022
:101C100023F96FF0150309E0786910F0C0FA7B69C9
:101C2000064A0821F86812F017F9002318461837F9
:101C3000BD4680BD08E0050824E005084CE0050825
:101C400080B500AF04F046FC0346024A9B58184694
:101C500080BD00BF0800000080B586B000AFF8600E
:101C6000B9607A607B6804331B6810220021184633
:101C70000DF05AFD03467B617869FFF7FDFD0346D1
:101C800083F00103DBB2002B08D07B69114A0121EC
:101C9000F86812F0E1F86FF0150317E0FFF7D0FFD6
:101CA00002467B69934207D10B4A0121F86812F082
:101CB000D3F86FF0150309E0786910F07BFA7B69BF
:101CC000064A0821F86812F0C7F8002318461837AA
:101CD000BD4680BD08E0050890E00508B8E00508AD
:101CE00080B500AF04F0F6FB0346024A9B58184645
:101CF00080BD00BF0800000080B586B000AFF8606E
:101D0000B9607A607B6804331B6810220021184692
:101D10000DF00AFD03467B617869FFF7ADFD0346D0
:101D200083F00103DBB2002B08D07B69114A01214B
:101D3000F86812F091F86FF0150317E0FFF7D0FF85
:101D400002467B69934207D10B4A0121F86812F0E1
:101D500083F86FF0150309E0786910F036FA7B69B3
:101D6000064A0821F86812F077F800231846183759
:101D7000BD4680BD08E00508F8E0050820E105083B
:101D800080B586B000AFF860B9607A60FB681B6808
:101D90007B617B69002B03D07B691B78002B07D10B
:101DA000FB68064A7968B8680DF06AFCBB687B611D
:101DB0007B6918461837BD4680BD00BF5CE1050849
:101DC00080B59CB002AFF860B9607A6007F140035B
:101DD000184608F087FEB8653A6CBB6D5B0113448A
:101DE0007B65404A0821F86812F036F83B6C7B6648
:101DF0006EE007F1100330221946786EFFF7C0FF3E
:101E00003865394B3B66BB68022B09D17B680433CC
:101E10001B681946386D0DF073FB0346002B53D039
:101E20003B6D324A0821F86812F016F8786E10F00F
:101E3000E9F9034683F00103DBB2002B01D02C4B00
:101E40003B66786E10F0F6F9F864FB6C002B08DB4B
:101E5000FB6C00933B6E274A0821F86811F0FCFFE9
:101E600005E03B6E244A0821F86811F0F5FF786E12
:101E700010F0B6F9B864BB6C002B26D0BB6C1B68A5
:101E8000002B22D01D4A0821F86811F0E5FF00233D
:101E9000FB650EE0BA6CFB6D9B0013445B687B64D2
:101EA0007B6C174A0821F86811F0D6FFFB6D0133EF
:101EB000FB65BB6C1B68FA6D9A42EBD3114A082193
:101EC000F86811F0C9FF00E000BF7B6E20337B662D
:101ED0007A6E7B6D9A428CD3002318466837BD46D4
:101EE00080BD00BF64E1050870E1050878E10508E0
:101EF00080E105088CE10508A0E10508A8E10508D6
:101F0000BCE1050880E6050880B584B000AF7860C4
:101F100039600021786812F019FBF860FB68002B2B
:101F200002D0FB681B6800E000233A6813603B683E
:101F30000022DA603B68044A5A603B6800229A60DB
:101F400000BF1037BD4680BD88F7050880B588B052
:101F500002AFF860B9607A607B6804331B6818468A
:101F600012F049FB78617B69002B0AD17B6804334E
:101F70001B681C4A0121F86811F06EFF6FF0120314
:101F80002BE0786910F03EF90346002B09D07B68FE
:101F900004331B68144A0221F86811F05DFF002326
:101FA0001BE0786910F03AF938613B69002B0BD0DF
:101FB0007B6804331A683B69009313460B4A01217E
:101FC000F86811F049FF07E07B6804331B68084A92
:101FD0000221F86811F040FF3B6918461837BD46EA
:101FE00080BD00BFC0E10508D8E10508FCE1050897
:101FF0002CE2050880B584B000AF7860396000211C
:10200000786812F0B3FAF860FB68002B02D0FB6826
:102010001B6800E000233A6813603B680022DA6026
:102020003B68044A5A603B6800229A6000BF103740
:10203000BD4680BD88F705082DE9B04F92B000AFCE
:10204000F860B9607A60FB70FB78DB08DBB2FB6399
:10205000FB78083B182B8CBF01220022D2B2002A49
:102060000BD1484A22FA03F303F00103002B14BFFB
:1020700001230023DBB2002B08D1FB78424A082160
:10208000F86811F0E9FE6FF0150375E000BFBB685A
:102090003B646DE000237B644DE0FB78202B32D065
:1020A000202B44DC082B02D0102B16D03FE03A6CDA
:1020B0007B6C1344FB62FB6A1B78DBB2DBB2002251
:1020C0001C461546C7E90C4597F8301007F1140275
:1020D0007B6C13440A461A7029E03A6C7B6C1344FB
:1020E000BB62BB6A1B889BB29BB20022984691469A
:1020F000C7E90C89388E07F114027B6C134419462A
:1021000010F0A3F813E03A6C7B6C13447B627B6A9B
:102110001B6800229A469346C7E90CAB386B07F15F
:1021200014027B6C1344194610F0A5F800BF7A6CBA
:10213000FB6B13447B647A68FB6B9A4204D37A6C22
:10214000FB6B1344102BA8D97B68102B28BF1023DE
:1021500007F11402396CF86802F098F93B6C1033FF
:102160003B647B68102B28BF10237A68D31A7B60EE
:102170007B68002B8ED1002318464837BD46BDE84A
:10218000B08F00BF01010001D0E2050880B58AB020
:1021900000AFF860B9607A6000237B614FF0FF33D5
:1021A0007B6220233B624FF0FF33FB61454B0122F2
:1021B0001A60FEF7E1FF56E0BB69772B35D0BB69AB
:1021C000772B48DCBB69612B03D0BB69732B16D01E
:1021D00041E03D4B1B6807F114021021184602F044
:1021E0000DF9F8617B69002B38D0374B1B68374AF3
:1021F0000121F86811F030FE6FF015035EE0324BFC
:102200001B6807F114020021184602F0F7F8786203
:102210007B69002B24D02C4B1B682D4A0121F868C8
:1022200011F01AFE6FF0150348E0274B1B6807F109
:1022300014020021184602F0E1F838627B69002B95
:1022400010D0214B1B68234A0121F86811F004FECD
:102250006FF0150332E06FF015032FE000BF02E0CE
:1022600000BF00E000BFBB681B4A79681846FEF754
:10227000BBFFB861BB69B3F1FF3F9DD1FB69B3F10F
:10228000FF3F07D1154A0121F86811F0E5FD6FF015
:10229000150313E07B6AB3F1FF3F07D1104A012118
:1022A000F86811F0D9FD6FF0150307E03B6ADBB267
:1022B0007A6AF969F868FFF7BFFE034618462837BF
:1022C000BD4680BD6001002440070024ECE2050803
:1022D00000E3050814E3050828E3050830E30508D2
:1022E00050E3050880B582B000AF786039603B6884
:1022F000002B0BD0184B1B78002B07D0174A01215D
:10230000786811F0A9FD6FF00F0320E0124B1B78E5
:10231000002B14BF01230023DBB283F00103DBB2E7
:1023200003F00103DAB20C4B1A700B4B1B78002B35
:1023300007D00B4A0821786811F08EFD064B012268
:102340001A7000223968786811F0F0FD00231846F1
:102350000837BD4680BD00BF550D00246CE305085D
:10236000A8E3050880B588B000AFF860B9607A606E
:102370003B600023FB770023BB614BE05A4B1B788B
:10238000182B0BD1BA68BB6913441B78112B05D1EC
:102390000123FB77544B00221A703FE0BA68BB69F7
:1023A00013441A78504B1A70BA68BB6913441B78EF
:1023B00018460FF078FF0346002B0CD0BA68BB69B3
:1023C0001A444A4B1B681178494AD154474B1B6841
:1023D0000133464A1360454B1B68022B17D110226C
:1023E000002143480DF0A0F90346FB75414B1B68E3
:1023F000FA7D1A703F4B1B6801333E4A13603E4B17
:102400001B6801333C4A1360384B00221A60BB69D9
:102410000133BB61BA697B689A42AFD3FB7F002B63
:102420005ED0354B1B68354A0821F86811F014FD61
:102430000021F868FFF756FF314B1B7883F001034A
:10244000DBB2002B4BD010E02E4B1B681A682D4BD3
:102450001B6812BA1A602B4B1B680433294A13609D
:10246000254B1B68043B244A1360234B1B68042B39
:10247000EADC214B1B6803F00303002B07D1214B3F
:102480001B681A681F4B1B6812BA1A6027E01A4BA8
:102490001B685A4203F0030302F0030258BF534281
:1024A000022B09D1174B1B681B689BB25BBA9AB20F
:1024B000144B1B681A6012E00F4B1B685A4203F062
:1024C000030302F0030258BF5342032B07D10D4B05
:1024D0001B681B681ABA0B4B1B68120A1A6000BFF4
:1024E0002037BD4680BD00BF560D0024580700248C
:1024F0005C0700244C07002454070024D4E305089B
:10250000540D00245007002490B587B000AFF86048
:10251000B9607A603B4B00221A703B4B00221A6074
:102520003A4B00221A6048E07B6804331C687B68E1
:1025300004331B680222364918460CF007FE034696
:10254000002B08D17B6804331B6802331B78002BF7
:1025500001D0012300E0002323447B6102222D49A6
:1025600078690CF0F3FD0346002B03D1254B0122C3
:102570001A701CE026497869FDF7B2FE0346002B6D
:1025800006D17B6804337B60BB68013BBB6017E00E
:102590007B691B782D2B13D17B6901331B78002BB2
:1025A0000ED07B691C4A0821F86811F055FC7B6845
:1025B00004337B60BB68013BBB60BB68012BB3D8B5
:1025C0007B6804331B680022002118460DF0ACF82C
:1025D00003461A46114B1A607B6804331B680022BD
:1025E000002118460DF0A0F803461A460C4B1A605D
:1025F0000C49F868FFF776FE002318461C37BD46E5
:1026000090BD00BF540D0024580700245407002437
:10261000F0E30508F4E30508F8E305084C07002497
:1026200050070024652304082DE9B04F8CB002AF99
:10263000F860B9601346FB710023FB61FB79202B26
:102640001ED0202B26DC082B02D0102B0CD021E032
:10265000BB68BB61BB691B78DBB2DBB200229A4668
:102660009346C7E908AB1EE0BB687B617B691B88AA
:102670009BB29BB2002298469146C7E9088912E0B6
:10268000BB683B613B691B6800221C461546C7E9D5
:10269000084508E00D4A0821F86811F0DDFB6FF0ED
:1026A0001503FB6100BFFB69002B08D1D7E90823A4
:1026B000CDE90023064A0821F86811F0CDFBFB693B
:1026C00018462837BD46BDE8B08F00BF10E40508A6
:1026D00028E4050880B58CB000AFF860B9601346F7
:1026E000FB710023FB62FB79202B1BD0202B22DC0B
:1026F000082B02D0102B0CD01DE097F8383087F84B
:102700002B30BB687B627B6A97F82B201A7000BF66
:102710001AE03B8F7B84BB68FB61FB697A8C1A8073
:1027200000BF11E0BB6BBB61BB687B617B69BA69B1
:102730001A6000BF08E0074A0821F86811F08CFB16
:102740006FF01503FB6200BFFB6A18463037BD46C9
:1027500080BD00BF10E4050880B58CB002AFF86002
:10276000B9607A604FF000024FF00003C7E906231A
:102770007B6804331B681022002118460CF0D4FF3C
:1027800078617B693B61BB68022B03D8202387F803
:1027900027300AE07B6808331B680A2200211846AC
:1027A0000CF0C2FF034687F8273097F827301A4A03
:1027B0000821F86811F050FBBB68032B08D897F884
:1027C00027301A463969F868FFF72EFF03461EE0E6
:1027D0007B680C331B681022002118460DF012F89C
:1027E000C7E90601D7E90623CDE900230B4A0821F2
:1027F000F86811F031FB97F82710D7E90623CDE9E7
:1028000000230A463969F868FFF764FF0346184653
:102810002837BD4680BD00BF3CE4050854E40508E8
:1028200080B584B000AF78607B681B68FB607B6814
:1028300003F124007B6840331A4640210FF072FDFB
:102840007B6803F110007B6838331A4608210FF0CB
:1028500069FD7B680022C3F8B8207A680549F868EA
:102860000FF003FFF8680FF043FF00BF1037BD46BD
:1028700080BD00BF9528050880B586B002AF164B15
:10288000FB600123FB7200237B60F8680FF0EFFD13
:10289000034683F00103DBB2002B02D06FF012037A
:1028A00015E0F97A0022134643F00202134643F082
:1028B0000802134643F01002134643F020027B68DF
:1028C00000930B46F968054801F034FA00231846D6
:1028D0001037BD4680BD00BFE0D3050824D80508E9
:1028E00080B500AF03F0F6FD0346024A9B58184638
:1028F00080BD00BF0800000080B582B000AF7860E6
:10290000786810F06AFA034683F00103DBB2002B0B
:1029100006D17B685B690449184610F00DFA00BFC8
:1029200000BF0837BD4680BDD0D9050880B582B04C
:1029300000AF78607B685B690349184610F0FCF9CA
:1029400000BF0837BD4680BD80E6050880B582B06F
:1029500000AF78607B689B681C331946786802F08A
:1029600049FB7B689B681C33034A1946786812F060
:10297000F8FB0837BD4680BDE0E5050880B582B0AC
:1029800000AF78600B46FB70FB7883F00103DBB28D
:10299000002B0DD07B689B68DB69084A01217868B1
:1029A00012F06FFB7868FFF7D1FF6FF0150300E0BE
:1029B000002318460837BD4680BD00BFF0E5050876
:1029C00080B582B000AF78600B46FB707B689B6877
:1029D000FA781A75FB78022B1AD17B689B68DB6C3E
:1029E000002B15D1786810F008FC786810F047FBD0
:1029F0000346002B09D0084B084A0321786812F0DF
:102A000040FB0021786810F04AFB786812F01FFA4A
:102A100000BF0837BD4680BD0CE6050850E6050836
:102A200090B589B002AFF860B9601346FB80BB680F
:102A3000002B05D1FB689B680022A3F8442047E0E7
:102A4000254B1B68184610F047F903461A46FB88C9
:102A50001344FB80FB689B68DB8F1C461E4B1B6886
:102A6000184610F039F90346E21AFB8892FBF3F39B
:102A7000FB82B86810F030F903461A46FB889B1AAF
:102A8000BB82FB689A68B2F84430591C89B2A2F83C
:102A90004410FA8AB3FBF2F101FB02F29B1A9BB2DB
:102AA000002B0AD10C4B1A68BB68009313460B4AE3
:102AB0000621F86812F0E5FA05E0BB68084A06212D
:102AC000F86812F0DEFABB8A1946F86801F0F2FDE8
:102AD0001C37BD4690BD00BF9C01002454E605088C
:102AE00050E6050880B485B000AF786039607B6837
:102AF000FB6002E0FB680133FB60FB681B78002B86
:102B000009D0FB681B788033204A13441B7803F0FC
:102B10000803002BEED1FB681B78002B01D10023AA
:102B20002EE03B68002B04D0012329E0FB68013331
:102B3000FB60FB681B78002B0DD0FB681B78803393
:102B4000124A13441B7803F00803002BEED002E076
:102B5000FB680133FB60FB681B78002B09D0FB6826
:102B60001B788033094A13441B7803F00803002BB9
:102B7000EED1FB681B78002B14BF01230023DBB2CE
:102B800018461437BD4680BC704700BF08080608C9
:102B900080B584B000AF786039607B68FB603868CE
:102BA000FDF72EFBB86002E0FB680133FB60FB68B9
:102BB0001B78002B09D0FB681B788033164A13441E
:102BC0001B7803F00803002BEED1BA683968F86867
:102BD0000CF0BCFA0346002B01D0002317E0FA6882
:102BE000BB6813441B78002B0BD0FA68BB681344F6
:102BF0001B788033084A13441B7803F00803002B2A
:102C000001D0012300E0002303F00103DBB21846EA
:102C10001037BD4680BD00BF0808060880B58CB0DF
:102C200002AFF860B9607A603B60F86810F0CEFBE4
:102C30000346BB84002387F82730BB8C002B01D1CF
:102C40000023F6E0FB689B6803F5B070FB689B68A7
:102C500003F16001FB689B68B3F85A301A46FDF730
:102C60000DFDFB689B68FA689268B2F85A2013441D
:102C7000002283F86021FB689B68B3F85A30002B70
:102C800010D0FB689A68FB689B68B3F85A30013B28
:102C9000134493F860308033684A13441B7803F080
:102CA000080300E000233B620023002B15D0F868E6
:102CB00010F031F8034683F00103DBB2002B0CD097
:102CC000FB689B6803F5B0735D491846FFF760FF2A
:102CD0000346002B01D0012300E00023FB77FB7F9C
:102CE00003F00103FB77FB7F002B14BF01230023BC
:102CF000DBB283F00103DBB203F00103DAB27B6BDA
:102D00001A707B6B1B78002B14D0FB689B6803F553
:102D1000B073396A1846FFF7E5FE0346002B09D069
:102D2000FB689B6803F5B0734FF48071184611F08F
:102D30002CFBB8617B681968FB689B6803F5B0726F
:102D40001423386801F042FA3B681B68142B01D940
:102D500000236EE07B681A683B681B689B00134485
:102D600000221A60FB7F002B1AD03B681B68002BE7
:102D700016D07B681B681B6819463148FDF7B0FA0E
:102D80000346002B0CD17B681B681A1D7B681A60F8
:102D90003B681B685A1E3B681A60012387F827307E
:102DA00097F82730002B14BF01230023DBB283F0F8
:102DB0000103DBB203F00103DAB27B6B1A703B68EC
:102DC0001B68002B06D03B6A002B0ED13B681B68AA
:102DD000012B0AD13B6B00221A60F86810F031FA1F
:102DE0000246BB681A60012323E03B6A002B02D035
:102DF0003B681B6802E03B681B68013B7B61F8682D
:102E000010F01FFA7B681A6800230193BB6B0093D4
:102E10003B6B796911F0C5FA0246BB681A60BB6862
:102E20001B68002B04D17B69002B01D0002300E03C
:102E3000012318462837BD4680BD00BF0808060894
:102E40005CE6050880B586B000AFF860B9607A60CE
:102E500078680FF041FF0346FB82B8680FF03CFF33
:102E60000346BB82FA8ABB8A9A420AD0BB8A7A6836
:102E7000D118FA8ABB8AD31A9BB21A46F86811F0A5
:102E8000AAFFFB689B68FA689268B2F85A2013445C
:102E900093F860308033134A13441B7803F008031F
:102EA000002B17D1F8680FF05BFF0346002B0CD006
:102EB0000021F8680FF064FF2021F86811F0F3FE9C
:102EC0000121F8680FF05CFF08E02021F86811F09C
:102ED000EAFE03E00121F86811F0A4FD1837BD46B1
:102EE00080BD00BF0808060880B588B000AFF86054
:102EF000B9607A603B6078680FF0EEFE0346FB83B2
:102F0000FB689B681C331A463968B86811F0A8F949
:102F1000B861BB691B6818460FF0DEFE0346FB82F2
:102F2000FA8AFB8B9A420BD0BB691A68FB8BD118CB
:102F3000FA8AFB8BD31A9BB21A46F86811F04BFF42
:102F4000FB689B68FA689268B2F85A20134493F8B9
:102F500060308033124A13441B7803F00803002BBF
:102F600017D1F8680FF0FCFE0346002B0CD00021AF
:102F7000F8680FF005FF2021F86811F094FE012198
:102F8000F8680FF0FDFE08E02021F86811F08BFED4
:102F900003E00121F86811F045FD2037BD4680BDF2
:102FA00008080608B0B58CB000AFF860B9607A6068
:102FB0003B600023FB62BA683B68D31ABB623B6884
:102FC0009B007A6813447B62FB689B689B6A002BBA
:102FD00027D13B6C002B1CD03B6C5B68002B02D1D3
:102FE0006FF0070367E03B6C5A68FB689B681B6ADD
:102FF0009A4209D0FB689B683A6C03F11C041546A1
:103000000FCD0FC42B682360F868FFF79FFC0123E6
:1030100051E02B4A0121F86812F033F86FF00703F2
:1030200049E0FB689B6893F82C30002B29D0FB68A3
:103030009B6893F82C303B62FB689B6893F82D30BB
:10304000FB77FB7FFF2B01D0FB7F01E04FF6FF7387
:10305000BB61BA6A3B6A9A4207D33A6ABB691344B6
:10306000BA6A9A4201D8012300E00023FB75FB7D78
:1030700003F00103FB75FB7D1946F868FFF77EFC42
:10308000F862FB6A002B15D10121F8680FF096FF5A
:10309000F86810F094F8FB689B689B6A7A6AB96AD2
:1030A000F8689847F862F86810F076F80021F86838
:1030B0000FF084FFFB6A18463037BD46B0BD00BF35
:1030C00064E6050880B584B000AFF8600B467A600E
:1030D000FB72FB7A002B10D07B68DB68002B0CD0D6
:1030E000F86811F03AFDF86811F039FC054A012141
:1030F000F86811F0C6FF002300E0012318461037DE
:10310000BD4680BD84E60508B0B5EEB002AF07F558
:10311000D873A3F5D673186007F5C27300221A603E
:103120005A609A60DA601A6107F598735422002198
:1031300018460BF0E1FC07F5D873A3F5D6731868B1
:1031400010F07FF8C7F8AC010023C7F8A8310023BE
:10315000C7F818310023C7F81431002387F8A731C6
:103160000023C7F810314FF0FF33C7F80C3107F5D3
:10317000D873A3F5D6731B689B686033C7F89C317E
:10318000002387F89B3107F5D873A3F5D673186829
:1031900011F0E3FC07F5D873A3F5D673186811F0A6
:1031A000B4FB034683F00103DBB2002B06D007F526
:1031B000D873A3F5D6731868FFF7B8FB07F5D87373
:1031C000A3F5D6731B689B681C3314220021184694
:1031D0000BF092FC07F5D873A3F5D673186811F0BD
:1031E00032F907F5D873A3F5D6731B689B6803F112
:1031F000600107F5D873A3F5D6731B689B68B3F815
:1032000058301A4607F5D873A3F5D673186810F02E
:1032100045F807F5D873A3F5D673186812F02BFCA0
:10322000D7F8AC31002B2AD0D7F8AC311B68C7F8DF
:103230003031D7F89C31C7F8343107F5987304332F
:10324000C7F8A03107F5D873A3F5D6731B689B6840
:1032500003F11C0107F58C7007F58E7207F5867374
:10326000019307F58A7300930346D7F8AC0110F079
:103270005BFBD7F818310133C7F8183117E1002389
:10328000C7F8203107F59873C7F8A0310FE107F5AB
:1032900088700223D7F89C21D7F8A01100F096FF80
:1032A000034687F89A31D7F8A0315B68C7F89C319C
:1032B000D7F81031002B02D16FF007037DE1D7F86A
:1032C0001031012B11D197F89A31002B0DD097F8BE
:1032D0009A3107F5D872A2F5D670BA4A0121006872
:1032E00011F0CFFE6FF0070367E1D7F81831002B1C
:1032F0002FD0D7F8A0311B68184601F0B7FE03465F
:10330000002B26D0D7F82031002B16D007F5D87324
:10331000A3F5D6731B689B6803F11C0407F58E7533
:103320000FCD0FC42B68236007F5D873A3F5D673B0
:103330001868FFF70BFB01233FE107F5D873A3F5EE
:10334000D673A14A0121186811F09BFE6FF00703A4
:1033500033E1D7F81831002B20D0D7F8A0311A6804
:1033600007F5D873A3F5D673D7F8A811186812F02B
:10337000B9FB034687F8993197F89931022B00F091
:10338000A48097F89931032B08D0D7F8183101336E
:10339000C7F81831012387F8A73188E097F89B31E7
:1033A00083F00103DBB2002B0BD0D7F8A0311B68F0
:1033B00007F5C2721946D7F8AC0110F0B4FFC7F890
:1033C000A801D7F8A0310433C7F8A031D7F80C31E1
:1033D000013BC7F80C31D7F8A831002B2FD097F854
:1033E000A71107F5D873A3F5D673D7F8A8211868E5
:1033F000FFF768FE034683F00103DBB2002B02D027
:103400006FF00703D9E007F5D873A3F5D6731B68EF
:103410009B6803F11C0107F58C7007F58E7207F5A8
:103420008673019307F58A7300930346D7F8A801C2
:1034300010F07AFAD7F8A831C7F8AC312AE0D7F8FB
:103440001831002B23D107F5D873A3F5D67318686C
:103450000FF061FC034683F00103DBB2002B09D1BE
:1034600007F5D873A3F5D6731B689B681B6BDB68E5
:10347000002B0CD1D7F8303107F5D872A2F5D670F1
:10348000524A0092524A0121006811F0FAFD0123CC
:1034900087F89B31D7F80C31002B03D1D7F81031C6
:1034A000022B04D1D7F818310133C7F81831D7F8F7
:1034B0001031012B0AD0D7F81831132B06D8D7F8C2
:1034C0000C31002B7FF4E3AE00E000BFD7F81831D9
:1034D000132B10D9D7F81031022B0CD107F5D87364
:1034E000A3F5D6703B4B3C4A0121006811F0C9FDA1
:1034F0006FF0070361E097F8A731002B33D007F591
:10350000D873A3F5D673186812F010FB07F5D873BB
:10351000A3F5D67318680FF094FE0346002B14BF72
:1035200001230023DBB207F598729B00D11807F541
:10353000D873A3F5D6731B689B6803F1600207F587
:103540008C70142300F042FE07F5D873A3F5D673F0
:1035500018680FF076FE0346002B04D0D7F8183118
:103560000133C7F81831D7F8AC31002B13D0D7F896
:10357000AC315B7CFE2B0ED1D7F818319B0003F5E4
:10358000D8733B4453F8803C002B04D0D7F8183153
:103590000133C7F81831D7F81811D7F8144107F5D7
:1035A000987207F5D873A3F5D67007F58E7300935C
:1035B00023460068FFF7F6FC0346184607F5D87760
:1035C000BD46B0BDB4E6050864E60508D0E60508CA
:1035D000C8E60508E4E6050828DD050880B582B0E0
:1035E00000AF78600B46FB70FB78013B162B00F2B6
:1035F000B18001A252F823F0553604085D36040864
:1036000065360408A9360408B1360408B93604083A
:10361000553704085537040855370408553704084A
:10362000C1360408C9360408553704080D370408A4
:103630005537040817370408553704085537040868
:10364000553704082137040829370408553704087A
:1036500045370408786811F06DFA7CE0786811F05D
:1036600093FA78E0786811F078FA786811F04DF9FB
:10367000034683F00103DBB2002B02D07868FFF72A
:1036800055F9012178680FF057FC7B689B689B7D9A
:10369000012B04D17B689B6803229A755BE00221B1
:1036A0007868FFF78DF956E0786811F040FB52E03A
:1036B000786811F052FA4EE0786811F078FA4AE032
:1036C000786811F06BFB46E078680FF086FB0346E4
:1036D00083F00103DBB2002B05D17B685B691F49D6
:1036E00018460FF029FB78680FF077FB034683F04C
:1036F0000103DBB2002B05D17B685B6918491846D2
:103700000FF01AFB786811F0A2FB24E00021786822
:103710000FF0D4FD1FE0012178680FF0CFFD1AE013
:10372000786810F037F916E0786811F003FA7868D5
:103730000FF063FD012178680FF0FEFB7868FFF75A
:10374000DBF808E0786801F029F8012178680FF0CB
:10375000F3FB00E000BF0837BD4680BDE0D9050897
:10376000E8D9050890B58DB000AF78600023FB6103
:103770007B689B68DB6CFB627B689B681B6DBB6234
:10378000FB6A002B34D07B685B681B681C697B6814
:10379000586807F11C0307F108011022A04778625E
:1037A0007B6A002BC0F2F481FB69002B00F0F281F0
:1037B000012178680FF002FC78680FF000FDFA69CB
:1037C00007F10801FC6ABB6A7868A04778680FF0C7
:1037D000E3FC002178680FF0F1FB7B689B68DB6CF1
:1037E000002B40F0CF8102217868FFF7E9F8D1E1A2
:1037F0007B685B681B681C697B68586807F11C0361
:1038000007F11B010122A04778627B6A002BC0F2FE
:10381000C381FB69002B00F0C181FB7E184610F0CC
:10382000BDF90346002B40F0AF817B689B685B7D50
:10383000032B00F29E8101A252F823F04D380408B8
:10384000FB3904082B3A0408693B0408FB7E19463F
:10385000786810F077F90346002B26D07B689B68C8
:103860009B7D012B07D17868FFF760F87B689B6828
:1038700002229A7593E17B689B68B3F85830002B5D
:1038800006D178680FF0FAFC7868FFF74FF807E088
:103890007B689C687868FFF737FC0346C4F8A83259
:1038A00002217868FFF78CF871E1FB7E1B2B3FDC6F
:1038B000002B79DB1B2B77D801A252F823F000BF35
:1038C000E7390408A9390408A9390408A939040802
:1038D000A9390408A9390408A9390408A939040830
:1038E0005D39040841390408A9390408A9390408D4
:1038F000A9390408A9390408A9390408A939040810
:10390000A9390408A9390408A9390408A9390408FF
:10391000A9390408A9390408A9390408A9390408EF
:10392000A9390408A9390408A93904083739040851
:103930007F2B21D038E0012178680FF04FFC5BE04D
:1039400078680FF05AFA0346002B4ED001217868B0
:103950000FF0F2FA786810F029F846E078680FF076
:103960004CFA0346002B42D0012178680FF0E4FAAC
:10397000786811F0BFF93AE078680FF03EFA034634
:10398000002B36D0012178680FF0D6FA78680FF056
:10399000B3FA0346002B03D0786811F0ABF928E0A6
:1039A000786811F0C4F924E0FB7E80337D4A13442B
:1039B0001B7803F09703002B09D0012178680FF0E2
:1039C000BBFAFB7E1946786811F06DF913E0786850
:1039D0000FF013FA0346002B0DD0FB7E19467868D2
:1039E000FFF7FCFD07E000BFC8E000BFC6E000BF76
:1039F000C4E000BFC2E000BFC0E0FB7E5B2B04D18F
:103A0000022178680FF0EAFBB8E078680FF0F5F96A
:103A10000346002B04D0FB7E1946786810F079F835
:103A2000002178680FF0DAFBA8E0002178680FF039
:103A3000D5FB78680FF0E1F9034683F00103DBB2B0
:103A4000002B40F0A380FB7E313B1B2B00F28880D3
:103A500001A252F823F000BFFD3A04080D3B040810
:103A6000453B0408ED3A0408613B0408613B040847
:103A7000613B0408613B0408613B0408613B0408A6
:103A8000613B0408613B0408613B0408613B040896
:103A9000613B0408613B0408C93A0408D33A0408AE
:103AA000DD3A0408E53A0408613B0408F53A0408E5
:103AB000613B0408053B0408613B0408613B0408C2
:103AC000613B0408153B0408012178680FF0F6FB00
:103AD00049E0002178680FF0F1FB44E0786811F0CC
:103AE00066F840E0786811F04FF83CE00321786810
:103AF0000FF074FB786811F030F834E00321786837
:103B00000FF06CFB786811F015F82CE00321786851
:103B10000FF064FB78680FF023F9034687F8233031
:103B200097F82330002B14BF01230023DBB283F06E
:103B30000103DBB203F00103DBB2194678680FF032
:103B40001FF910E0032178680FF048FB78680FF048
:103B500054F90346002B05D0786811F0E8F801E02D
:103B600000BF0BE000BF09E0002178680FF036FBD2
:103B700004E0002178680FF031FB00BF78680FF097
:103B8000BDF8F5E500BFF3E500BFF1E500BFEFE5E7
:103B900000BF04E000BF02E000BF00E000BF343718
:103BA000BD4690BD0808060890B587B000AFF86024
:103BB000B9607A60FB689B684FF42B72002118464D
:103BC0000AF09AFF0023002B06D0FB689C6835485A
:103BD00010F01FFB03462363FB689B6803F5227309
:103BE00018460FF001F8FB689B6803F52573012266
:103BF000012118460FF035F8FB689B6900221A6016
:103C00000121F8680FF046F9FB689B685022DA87BB
:103C1000FB689B6818229A87FB681B681946F8683E
:103C200010F033F93B7923F004033B713B79C3F384
:103C30000013DAB23B7962F304133B713B79C3F3AF
:103C40004013DAB23B7962F345133B713B79C3F31E
:103C50004003DAB23B7962F341033B713B79C3F332
:103C6000C003DAB23B7962F3C3033B71FB689B6824
:103C70007A68C3F88022FB685B681B681C68FB6875
:103C80005868FB68084AB968A04778617B69002BCF
:103C900003D10121F868FEF793FE7B6918461C37B3
:103CA000BD4690BDCCDE0508C13B050880B588B097
:103CB00002AFF860B9607A60FB687B61786910F0E8
:103CC00004F838613B69002B2CD17B699B6803F5B4
:103CD00022704FF0FF324FF0FF33CDE90023002276
:103CE00007210EF0A8FF78690FF056FA0F4A042159
:103CF00078690FF0A8FF0E4A012178690FF0A3FF41
:103D00007B695B681B685B69002B07D07B695B681C
:103D10001B685B697A6952681046984778690FF0AA
:103D20004EFAD2E700BF1837BD4680BD8F3C05086C
:103D3000333D0508B0B58EB008AFF860B9607A6061
:103D4000FB70FB689B68D3F8A432002B02D06FF0A5
:103D500077034DE07A68B968F868FFF725FF786166
:103D60007B69002B01D07B6942E0FB781946F8683B
:103D70000FF0C7F9FB689B68BA6A5A65FB685B6815
:103D80001B689B68FA685268002110469847786162
:103D90007B69002B04D0F8680FF02EFF7B6927E0C9
:103DA000FB685C6AFB689D6A4FF000004FF0000101
:103DB000CDE90601002304930E230393002302930D
:103DC00000230193FB6800930B4B4FF400622946DC
:103DD00020460EF0D0FE3861FB689B683A69C3F854
:103DE000A422FB681B6A194638690EF0EFFE002317
:103DF00018461837BD46B0BDAD3C040880B584B048
:103E000000AFF860B9607A600E4A0821F86810F0D7
:103E100023F80D4A0821F86810F01EF80B4A082113
:103E2000F86810F019F80A4A0821F86810F014F838
:103E3000084A0021F86811F094F900231846103759
:103E4000BD4680BD08E7050848E70508A8E705085E
:103E5000FCE7050898E8050880B584B000AFF86075
:103E6000B9607A607B68BA680449F8680DF007FCAD
:103E7000034618461037BD4680BD00BF896A040856
:103E800080B584B000AFF860B9607A607B68BA68CA
:103E9000F968074802F0F8FDFB681B691B79002BE5
:103EA00002D0F86810F08CF800BF1037BD4680BD16
:103EB0005D3F050880B582B000AF786039603A6830
:103EC00079680748FFF7C8FF7B681B691B79002BDF
:103ED00002D0786810F074F800BF0837BD4680BD86
:103EE0005D3F050880B485B000AF78607B689B00BB
:103EF000044A1344FB60FB6818461437BD4680BC77
:103F0000704700BF50D8050880B483B000AF786018
:103F10007B68094A934205D37B68084A934201D2E1
:103F2000012300E0002303F00103DBB218460C3745
:103F3000BD4680BC704700BF98D90508A0D90508C8
:103F400080B483B000AF78607B68094A934205D3A0
:103F50007B68084A934201D2012300E0002303F06A
:103F60000103DBB218460C37BD4680BC704700BF6A
:103F700080D8050898D9050890B587B000AF78605B
:103F80000B46FB707B681B687B610023FB747B69BD
:103F90001B78FB70FB78002B00F00B81FB7C002B67
:103FA00027D1FB785C2B06D05C2B21DC222B11D097
:103FB000272B0FD01CE07B695C1C786910F034F86B
:103FC00003461A46214678690AF0B2FC7B69013340
:103FD0007B61EDE07B695C1C786910F025F8034695
:103FE0001A46214678690AF0A3FCFB78FB74DFE0EF
:103FF00000BFFA7CFB789A420DD17B695C1C786922
:1040000010F012F803461A46214678690AF090FC2F
:104010000023FB74CCE0FB7C002B00F0BA80FB7823
:104020005C2B40F0B6807B695B78BB74BA7CFB7C10
:104030009A420ED17B695C1C78690FF0F5FF03464C
:104040001A46214678690AF073FC7B6901337B616B
:10405000AEE0BB7C302B3AD100233B7402237B744F
:1040600018E07B7C7A6913441B78BB74BB7C2F2BD4
:1040700013D9BB7C372B10D897F91030DB005AB21C
:10408000BB7C303BDBB25BB213435BB23B747B7CEB
:1040900001337B747B7C042BE3D97B7C022B16D908
:1040A0007B7C013B7A69D41878690FF0BDFF034629
:1040B0001A467B7C023BD31A1A46214678690AF0DD
:1040C00037FC7B695A1C7A613A7C1A7070E0BB7CC1
:1040D000782B5ED10023BB730223FB733CE0FB7B98
:1040E0007A6913441B78BB74BB7C2F2B0ED9BB7C25
:1040F000392B0BD897F90E301B015AB2BB7C303BE1
:10410000DBB25BB213435BB2BB7322E0BB7C602BC0
:104110000ED9BB7C662B0BD897F90E301B015AB217
:10412000BB7C573BDBB25BB213435BB2BB7310E0AB
:10413000BB7C402B13D9BB7C462B10D897F90E3093
:104140001B015AB2BB7C373BDBB25BB213435BB2A1
:10415000BB73FB7B0133FB73FB7B032BBFD9FB7B67
:10416000022B16D9FB7B013B7A69D41878690FF0D2
:104170005BFF03461A46FB7B023BD31A1A462146D5
:1041800078690AF0D5FB7B695A1C7A61BA7B1A7090
:104190000EE0FB7C002B08D1FB7880330A4A1344E5
:1041A0001B7803F00803002B05D17B6901337B6189
:1041B000EDE600BF00E000BF7B687A691A60FB7C17
:1041C00018461C37BD4690BD0808060880B586B065
:1041D00000AFF860B9607A60FB700023FB75FB6884
:1041E00000221A607B681B78BB75BB7D002B26D034
:1041F000BB7D8033164A13441B7803F00803002B61
:1042000005D07B685A1C7A6000221A7016E0FB68A1
:104210001B68591CFA6811609B00BA6813447A68DD
:104220001A60FB681A68FB789A420AD0BA7D3B1D77
:1042300011461846FFF7A0FE0346FB75D2E700BF04
:1042400000E000BFFB7D18461837BD4680BD00BFAB
:104250000808060880B483B000AF054A054BD31A9E
:104260009B087B607B6818460C37BD4680BC704756
:1042700080D8050850D8050880B584B000AF7860B4
:1042800078680FF0D1FE0346FB810023BB81FB89D8
:10429000002B4CD000237B8143E07B897A68134458
:1042A0001B788033244A13441B7803F00803002B47
:1042B00034D07B8901333B812AE03B897A681344FF
:1042C0001B7880331C4A13441B7803F00803002B2F
:1042D00003D0BB890133BB8117E0BB89002B1CD005
:1042E0007B8901337A68D0183B897A68D118FA89BA
:1042F0003B89D31A01331A460AF01AFBFA89BB89A3
:10430000D31AFB810023BB8107E03B8901333B814A
:104310003A89FB899A42D0D300E000BF7B89013300
:104320007B817A89FB89013B9A42B6DB00E000BFC2
:104330001037BD4680BD00BF0808060880B584B0B0
:1043400000AF786039600023FB817B681B78002B0D
:104350004ED00DE03B681B88013B9AB23B681A8047
:104360003B681B88002B03D17B6800221A7040E059
:104370003B681B88013B7A6813441B7880331E4AD4
:1043800013441B7803F00803002BE3D13B681B8820
:104390001A467B68134400221A7000BFFB895A1C1E
:1043A000FA811A467B6813441B788033124A1344FF
:1043B0001B7803F00803002BF0D1FB89013BFB8144
:1043C000FB89002B15D0FB897A68D1183B681B88C4
:1043D0001A46FB89D31A01331A4678680AF0A8FAFC
:1043E0003B681A88FB89D31A9AB23B681A8000E0AE
:1043F00000BF1037BD4680BD0808060880B586B0EE
:1044000000AFF860B9607A60FB681B782D2B05D18E
:104410007B686FF015021A60002330E002F05AF852
:104420000346194A0021995007F11003BA6819464A
:10443000F8680BF079F9786102F04CF80346124AFB
:104440009B58222B05D17B686FF021021A60002354
:1044500015E002F03FF803460B4A9B58002B07D1AA
:104460003B69FA689A4203D03B691B78002B05D060
:104470007B686FF015021A60002300E07B69184624
:104480001837BD4680BD00BF0C00000080B586B067
:1044900000AFF860B9607A603B60BB68384A0821B9
:1044A000F8680FF0D9FC00237B6122E07B69002BC8
:1044B00009DD7B6903F00703002B04D1314A082191
:1044C000F8680FF0C9FC7B693A689A4209D97B69A0
:1044D0007A6813441B782C4A0821F8680FF0BCFC5A
:1044E00004E02A4A0821F8680FF0B6FC7B69013322
:1044F0007B617B690F2BD9DD254A0821F8680FF015
:10450000ABFC00237B612FE07B69002B09DD7B691D
:1045100003F00703002B04D11A4A0821F8680FF0B2
:104520009BFC7B693A689A4216D97B697A68134486
:104530001B78FB74FB7C8033164A13441B7803F012
:104540009703002B01D0FB7C00E02E23124A0821A8
:10455000F8680FF081FC04E00A4A0821F8680FF0BF
:104560007BFC7B6901337B617B690F2BCCDD0B4AC4
:104570000821F8680FF070FC00BF1837BD4680BDF9
:10458000D8E80508E4E80508E0E80508E8E80508D3
:10459000ECE8050808080608F8E80508F0E805084A
:1045A00080B582B000AF7860786810F002F90346F9
:1045B00083F00103DBB2002B06D17B685B69044901
:1045C000184610F0C2F800BF00BF0837BD4680BDD6
:1045D000F0D9050880B582B000AF7860786810F037
:1045E000E8F8034683F00103DBB2002B06D17B68B9
:1045F0005B690449184610F0A8F800BF00BF0837EF
:10460000BD4680BDF8D9050880B582B000AF78609E
:10461000786810F0CEF8034683F00103DBB2002B7C
:1046200006D17B685B690449184610F08EF800BF1C
:1046300000BF0837BD4680BDFCD9050880B582B0F3
:1046400000AF78607B685B690349184610F07DF81D
:1046500000BF0837BD4680BD80E6050880B584B040
:1046600000AF786039603B68002B01DD412300E03A
:104670004223FB733B68002B16D03B68002B02DA09
:104680003B685B423B60786810F093F8034683F028
:104690000103DBB2002B08D17B685869FB7B3A68C9
:1046A000034910F052F800E000BF1037BD4680BD4E
:1046B000F4E8050880B584B000AF786039603B68E5
:1046C000002B01DD432300E04423FB733B68002BF8
:1046D00016D03B68002B02DA3B685B423B6078688F
:1046E00010F067F8034683F00103DBB2002B08D11A
:1046F0007B685869FB7B3A68034910F026F800E0B4
:1047000000BF1037BD4680BDF4E8050880B487B00F
:1047100000AFF860084611461A4603467B810B46F7
:104720003B811346FB800023FB750023BB82FB8883
:10473000BA8A12FB03F39AB27B8913447B827B8A89
:10474000002B03D1B7F90630002B1EDB7A8A3B8998
:104750009A4203D1B7F90630002B16DC7B8AFA683F
:1047600013441B7880330C4A13441B7803F007036F
:10477000002B02D00123FB7502E0FB7D002B03D14F
:10478000BB8A0133BB82D2E700BFBB8A18461C3705
:10479000BD4680BC704700BF0808060880B586B0DB
:1047A00000AF78607B689B68B3F85830002B71D0FD
:1047B0007B689B68B3F85A30002B6BD07B689A6893
:1047C0007B689B68B3F85A30013B603313447B61CC
:1047D0007B689B686033FB6000237B8205E07B8AFB
:1047E00001337B827B69013B7B617A69FB689A427A
:1047F0000AD37B691B78202BF1D005E07B8A01333B
:104800007B827B69013B7B617A69FB689A4203D3B7
:104810007B691B78202BF1D17B69581C7B8A013383
:104820007A69D1187B689B68B3F858301A467B8A3E
:10483000D31A1A460AF07CF87B689B68B3F85810C4
:104840007B689B687A8A8A1A92B2A3F858207B68A0
:104850009B687A689268B2F858201344002283F863
:1048600060207B8A5B429BB21BB21946786810F0CD
:10487000D9F87868FFF7AEFE7B690133074A082153
:10488000786810F0FEFB7868FFF78AFE7868FFF71B
:10489000BBFE00E000BF1837BD4680BD50E60508EE
:1048A00090B587B000AF78600B467B8013467B7075
:1048B0007B78002B02D07868FFF772FE78680FF0E3
:1048C00098FF0346002B19D07B689A687B689B6829
:1048D000B3F85A30603313441846FBF791FC034693
:1048E0007B6105E07B685B69484918460FF02DFF46
:1048F0007B695A1E7A61002BF4D15EE07B689B686D
:10490000B3F858301C467B689B6818460FF00BFFC5
:1049100003462344BB607B689B68B3F85A301C464F
:104920007B689B6818460FF0FEFE034623443B61FC
:104930007B689B68DB8F1A463B6993FBF2F27B68CE
:104940009B68DB8F1946BB6893FBF1F39A4227D033
:104950007B689B68B3F85A30FB601CE03B695A1CCB
:104960003A617A689268D28F93FBF2F101FB02F20E
:104970009B1A002B02D17868FFF760FE7B689A686B
:10498000FB68591CF960134493F86030204A0821F1
:10499000786810F076FB3A69BB689A42DEDB0CE07F
:1049A0007B689A687B689B68B3F85A30603313441D
:1049B000184A0821786810F064FB7B689A687B6865
:1049C0009B68B2F85820A3F85A2078680FF074FF5B
:1049D0000346002B0ED07B78002B02D07B88002B67
:1049E00005D17B7883F00103DBB2002B02D078681D
:1049F000FFF724FE7B885B429BB21BB219467868A6
:104A000010F010F800BF1C37BD4690BD48DE050809
:104A1000F8E8050850E6050880B582B000AF786078
:104A20000B46FB707B6899687B689B68B3F85A20DB
:104A3000501C80B2A3F85A0013460B44FA7883F84E
:104A4000602078680FF0C5FE034683F00103DBB2F7
:104A5000002B18D178680FF0CCFE0346002B01D054
:104A60002A23FB707B685B69FA78094918460FF0C6
:104A70006CFE78680FF049FF0346002B04D078687D
:104A8000FFF7DCFD00E000BF0837BD4680BD00BF7A
:104A9000F8E8050880B582B000AF78607B689B6855
:104AA0009B7D002B07D17B689B68054A02217868B3
:104AB00010F0E7FA00E000BF0837BD4680BD00BF38
:104AC00050E6050880B588B000AF78600023FB6130
:104AD0000023BB617B689B68603318460FF023FEA0
:104AE00003467B617B689B6893F840303B6135E00F
:104AF0007B689B68DB8F1A463B69D31ABA691344FB
:104B0000BB617B689A68BB69134460331B78FB7395
:104B10007B689A68BB691344603300221A707B6813
:104B200058697B689A68FB69603313441A461949CF
:104B30000FF00BFE7B689A68BB6913446033FA7B05
:104B40001A707B689B68DB8F1A463B69D31A7A69B7
:104B5000D31A7B61BB69FB6100233B617B689B6867
:104B6000DB8F1A463B69D31A7A699A42C0DC7B69AB
:104B7000002B0ADD7B6858697B689A68FB696033A3
:104B800013441A4604490FF0E0FD00BF2037BD462C
:104B900080BD00BF28DD050850E6050880B582B05D
:104BA00000AF78600B46FB70FB78082B1FD8FB78B2
:104BB000082B1ED07B689B6893F84330FA789A42A2
:104BC00017D07B689B68FA7883F8432078680FF0E9
:104BD000F0FD034683F00103DBB2002B0AD17B68B2
:104BE0005B69FA78054918460FF0AFFD02E000BF97
:104BF00000E000BF0837BD4680BD00BFFCE80508E7
:104C000080B582B000AF78600B46FB70FB78082B54
:104C10002FD87B689B6893F84230FA789A422AD062
:104C20007B689B68FA7883F84220FB78082B10D0C9
:104C300078680FF0BEFD034683F00103DBB2002B62
:104C40001AD17B685B69FA780D4918460FF07DFD33
:104C500012E078680FF0ADFD034683F00103DBB28C
:104C6000002B09D17B685B69064918460FF06DFD82
:104C700002E000BF00E000BF0837BD4680BD00BFB6
:104C800008E9050800DA050880B485B000AF78604F
:104C9000184BBB6007F10803FB607B68002B1FD03B
:104CA000FB681A787B681B789A4219D1FB6801333C
:104CB0001A787B6801331B789A4211D1FB68023362
:104CC0001A787B6802331B789A4209D1FB68033358
:104CD0001A787B6803331B789A4201D1012300E0E4
:104CE000002303F00103DBB218461437BD4680BC35
:104CF000704700BFC40BD28680B582B000AF786029
:104D00007B685B690349184610F017FA00BF083743
:104D1000BD4680BD80E6050880B588B000AFF8606C
:104D2000B9607A60FB700023FB61BB68002B00F068
:104D3000D080FB78002B08D07B681946F868FFF715
:104D4000B9FC02E0FB690133FB61BA68FB691344FB
:104D50001B788033614A13441B7803F00803002B4F
:104D6000F0D100237B610023FB74B86810F0C6F912
:104D700003461A46FB69D31ABB61FB689B68DB8F4D
:104D80001A467B68D31ABA699A423CD800237B61E1
:104D900025E0FA697B691344BA6813441B780A2B2F
:104DA0001AD1F86810F0BCF9BA68FB6913447A6943
:104DB0001946F86810F094F87A69FB6913440133D6
:104DC000FB61F868FFF798FF7B681946F868FFF702
:104DD00071FC0123FB7406E07B6901337B617A6916
:104DE000BB699A42D5D3FB7C002B70D1FB68586914
:104DF000BA68FB691344194610F09FF900BFF868C0
:104E0000FFF77AFF66E0FB689B68DB8F1A467B68DA
:104E1000D31ABB61FA697B691344BA6813441B78DF
:104E200080332E4A13441B7803F00803002B09D06B
:104E30007B69BB61FA697B691344BA6813441B78C8
:104E40000A2B0BD07A697B681344FA689268D28F78
:104E5000934205D27B6901337B61DBE700BF00E051
:104E600000BFF86810F05CF9BA68FB691344BA69CE
:104E70001946F86810F034F8FA69BB691344FB610D
:104E80000EE0BA68FB6913441B780A2B0CBF0123A0
:104E90000023BB74FB690133FB61BB7C002B0CD18D
:104EA000BA68FB6913441B7880330C4A13441B789F
:104EB00003F00803002BE4D100E000BFF868FFF71F
:104EC0001BFF7B681946F868FFF7F4FB49E700BF52
:104ED00047E700BF2037BD4680BD00BF0808060871
:104EE00080B586B000AFF860B9607A603B607B68DF
:104EF0007B617B695B68002B06D07B695968002366
:104F00003A68F868FFF708FF7B699B68002B12D0AE
:104F10003B681946F868FFF7CDFBBB68084A0821D3
:104F2000F86810F0AEF87B6999683B68DA1D0023D9
:104F3000F868FFF7F1FE00BF1837BD4680BD00BF1F
:104F400014E9050890B589B002AFF860B9603B601C
:104F50001346FB802348FBF753F903469BB25B00E3
:104F60009AB2FB8813449CB21F48FBF749F90346E9
:104F70009BB22344FB82BB68002B2ED0BB681B78FE
:104F8000002B2AD0FB88BA6801920093154B174A70
:104F90000821F86810F075F83B68002B03D1F86819
:104FA000FFF7AAFE1AE00F4B114A0821F86810F02B
:104FB00068F83868FFF768FE0346002B06D0FB8AC6
:104FC0003A68B968F868FFF78BFF07E0FA8A0023B0
:104FD0003968F868FFF7A0FE00E000BF1C37BD4647
:104FE00090BD00BF840106088801060820E9050875
:104FF00028E9050890B587B002AF786039603B6852
:105000001B68184610F07AF803461C46154810F045
:1050100075F803462344FB813B681B68114A0092E4
:10502000114A0821786810F02CF83B685B68184634
:10503000FFF72AFE0346002B08D03B6819683B683F
:105040005A68FB897868FFF74BFF06E03B685968B0
:10505000FA8900237868FFF75FFE00BF1437BD466A
:1050600090BD00BF8C01060830E9050880B582B00C
:1050700000AF78600A497868FBF732F90346002BE5
:1050800006D008497868FBF72BF90346002B01D1BD
:10509000012300E0002318460837BD4680BD00BF4D
:1050A00038E905083CE9050880B582B000AF7860B2
:1050B000786810F038F9034683F00103DBB2002B67
:1050C00006D17B685B690449184610F0E6F800BF1A
:1050D00000BF0837BD4680BD08DA050880B582B03C
:1050E00000AF7860786810F01EF9034683F0010382
:1050F000DBB2002B06D17B685B690449184610F0CF
:10510000CCF800BF00BF0837BD4680BD0CDA0508EB
:1051100090B589B000AFF860B9607A600023FB8376
:105120000023FB74BB6800221A807B6800221A806F
:10513000FB689B6803F5B0734FF48072002118463A
:1051400009F0DAFCFB685B696A49184610F0A5F8BB
:10515000F86810F095F80023BB83C0E0FB685B683B
:105160001B681C69FB68586807F1140307F11301F9
:105170000122A047B861BB69002B01DABB69B5E029
:105180007B69002B04D14FF47A7010F06EF8A3E025
:10519000FB7C1B2B06D0FB689B6893F860311B2BB4
:1051A00040F09580FB7C522B7BD1FB689A68FB8B8F
:1051B0001344002283F86021FB689B6893F86131F7
:1051C0005B2B07D0FB689B68002283F860216FF09F
:1051D00004038BE00223FB831AE07B681B881A46DA
:1051E000920013445B009AB2FB689968FB8B581CD1
:1051F000F8830B4493F8603113449BB2303B9AB26E
:105200007B681A80FB8BFF2B02D96FF079036DE06E
:10521000FB689A68FB8B134493F860313B2BDCD11D
:10522000FB8B0133FB83FB8BFF2B1DD96FF004033A
:105230005CE0BB681B881A46920013445B009AB27C
:10524000FB689968FB8B581CF8830B4493F860311A
:1052500013449BB2303B9AB2BB681A80FB8BFF2B86
:1052600002D96FF0790341E0FB689A68FB8B134425
:1052700093F86031002BDCD1BB681B88FA2B02D974
:10528000BB68FA221A807B681B88FA2B02D97B68DC
:10529000FA221A80FB689B68002283F860210023B1
:1052A00024E0FB689A68FB8BF97C13440A4683F878
:1052B0006021FB8B0133FB83FB8B092B08D9FB6837
:1052C0009B68002283F860216FF00B030EE000BFA3
:1052D0007B69002B7FF442AFBB8B0133BB83BB8B5D
:1052E000B3F57A7FFFF43AAF6FF0730318462437B3
:1052F000BD4690BD5804060880B584B000AFF86084
:10530000B9607A60F86810F00EF8034683F0010384
:10531000DBB2002B05D1FB685B690C4918460FF026
:10532000BCFFF8680FF0FFFF034683F00103DBB218
:10533000002B05D1FB685B69054918460FF0ADFFEE
:10534000002318461037BD4680BD00BF10DA05089F
:1053500018DA050880B588B002AFF860B9607A60E5
:105360000023FB82144A0821F8680EF075FD134BE8
:105370003B6113E0FB8A5A1CFA8219463B699B6821
:105380001A463B691B6A019300920B460C4A08219E
:10539000F8680EF061FD3B692C333B613B69094ABB
:1053A000934234BF01230023DBB2002BE2D1002360
:1053B00018461837BD4680BD44E9050824D80508BD
:1053C0005CE9050850D8050880B584B000AFF860E6
:1053D000B9607A600449F8680EF057FD002318465A
:1053E0001037BD4680BD00BFCCDE050880B586B055
:1053F00002AFF860B9607A60BB68022B10D17B689D
:105400001A687B6804331B6801930F4B00931346A3
:105410000E4A0121F8680EF01FFD6FF015030EE033
:10542000F8680FF0C2FF0346002B01D0084B00E0E4
:10543000084B094A0821F8680EF00EFD00231846B3
:105440001037BD4680BD00BF7CE9050870E905083E
:105450005CF9050894E9050898E9050880B588B065
:1054600002AFF860B9607A6000237B61FB68D8689E
:10547000FB689B6803F5B07207F11203012110F07D
:105480009DF97B8A002B0FD07B695A1C7A611A46E2
:10549000FB689B6803F5B07300931346084A082124
:1054A000F8680EF0D9FCE1E700BFFB689B680022BA
:1054B00083F86021002318461837BD4680BD00BF21
:1054C000ACE9050880B584B000AFF860B9607A60D7
:1054D000FB689B691B68054A0821F8680EF0BCFC54
:1054E000002318461037BD4680BD00BFB8E9050847
:1054F00080B584B000AFF860B9607A60F8680FF0EA
:1055000012FF034683F00103DBB2002B05D1FB68D9
:105510005B69084918460FF0C0FEFB689B68502283
:10552000DA87FB689B6818229A8700231846103791
:10553000BD4680BD20DA050880B588B002AFF860AE
:10554000B9607A60BB68012B10D07B681A687B68F1
:1055500004331B680193134B00931346124A012135
:10556000F8680EF079FC6FF0150317E0F8680FF09B
:1055700090FF78617B69002B0FD0FB689B685022FD
:10558000DA87FB689B6818229A87084A0321F86823
:105590000EF062FC6FF0070300E000231846183796
:1055A000BD4680BD7CE9050870E90508C8E9050825
:1055B00080B584B000AFF860B9607A60F8680EF02A
:1055C000A3FC0346044A0821F8680EF045FC0023BA
:1055D00018461037BD4680BD04F0050880B58EB072
:1055E00000AFF860B9607A60022387F83730002393
:1055F000BB6200233B630023FB622BE0BB6A1B689A
:1056000000221946786810F079FF0346002B21D15B
:10561000FB689B6803F5B070FB689B6803F15C0155
:10562000BB6A1A687B6810F0B9F9034687F837300F
:1056300097F83730012B06D17B68184A0321F868A8
:105640000FF01FFD15E097F83730002B10D1FB6AE3
:105650000133FB623B6B5A1C3A6307F11402194693
:10566000B8680EF0FDFDB862BB6A002BC6D100E041
:1056700000BFFB6A002B0AD0FB689B6803F5B07083
:10568000FB689B685C337A6819460EF082FD97F8D8
:10569000373018463837BD4680BD00BF00EF0508DB
:1056A00080B500AF00F016FF0346024A9B5818462B
:1056B00080BD00BF0800000080B584B000AFF86076
:1056C000B9607A603B6010F050FA024600F002FFC9
:1056D000034606495A50FB683A687968B8689847A3
:1056E000FFF7DEFF0346184610F046FA08000000F8
:1056F00080B500AF084A094BD31A1A460021074863
:1057000010F045FA064A074BD31A1A4600210548FD
:1057100010F03DFA80BD00BF5C0D00244002002463
:10572000000000200000002080B500AF0C4A0D4BA7
:10573000D31A1A460C490B4810F038FA0B4A0C4B96
:10574000D31A1A460B490A4810F030FA0A4A0B4B92
:10575000D31A1A460A49094810F028FA00BF80BD3A
:1057600040020024000000248809060800000024EC
:105770000000002488090608000000200000002026
:10578000C80B060880B582B000AF78600BF0EEFF62
:105790007B6819687B685A687B689B6810480CF0C6
:1057A00042F80BF0E3FF7B68D9687B681A697B6875
:1057B0005B690C480CF037F80BF0D8FF7B68DB69AD
:1057C000194609480CF02FF80BF0D0FF7B689B6955
:1057D000194606480CF027F800BF0837BD4680BDC3
:1057E00054EF050884EF0508B4EF0508C4EF050879
:1057F00080B584B000AF786039603B68002B02D080
:105800003868FFF7BFFF7B68012B0BD1EFF30583EF
:10581000BB60BB68103BFB600BF0A8FFF968054854
:105820000CF001F83968786805F0D0F900BF10373E
:10583000BD4680BDF4EF050830BFFFF7FDBF00BFD8
:1058400080B483B000AF054A054B13447B607B688E
:1058500018460C37BD4680BC704700BF00000000F2
:105860000800000080B582B000AF7860094B1A468E
:1058700009497868FAF702FF064A7B6813447B609F
:10588000064B1A460021786809F036F900BF083740
:10589000BD4680BD00000000A0D90508080000003A
:1058A00080B58AB000AFF860B9607A6010237B627F
:1058B0006FF015033B620BF059FF4E480BF0B3FF3E
:1058C0004D4B9B6A03F01003002B06D011237B6223
:1058D0000BF04CFF49480BF0A6FF474B9B6A03F0C7
:1058E0000803002B06D012237B620BF03FFF4448D5
:1058F0000BF099FF404B9B6A03F00203002B1DD075
:1059000013237B620BF032FF3E480BF08CFF3A4BC7
:105910005B6BFB61384B9B6A03F08003002B0DD05F
:10592000FB693B620BF022FF396A37480BF07BFFC3
:10593000BB68002B02D0304B80229A622E4B9B6AB0
:1059400003F00103002B06D014237B620BF00EFF43
:105950002E480BF068FF284B9B6A03F02003002BB6
:1059600006D015237B620BF001FF29480BF05BFF8B
:10597000214B9B6A03F01003002B05D11E4B9B6A41
:1059800003F00203002B16D01B4B5B6803F400638B
:10599000002B10D0FB681946386A10F0B1F9B861D5
:1059A000BB69002B07D0BB697B617B6983F30988E6
:1059B00000BF02237B62104B9B6A03F02003002B85
:1059C00005D00D4B5B6A0C4A23F4005353620A4B1B
:1059D0009B6A094A43F0FF0393620121F86810F0C3
:1059E00041F903461A467B681A707B6A18462837C5
:1059F000BD4680BD08F0050800ED00E020F0050878
:105A000054F0050868F0050884F005089CF00508C6
:105A1000BCF0050880B586B000AFF860B9607A6068
:105A200016237B610BF0A2FE3D480BF0FCFE3D4BC4
:105A30009B6A03F48053002B06D017237B610BF085
:105A400095FE39480BF0EFFE364B9B6A03F400637A
:105A5000002B06D018237B610BF088FE33480BF037
:105A6000E2FE304B9B6A03F40073002B1CD0192319
:105A70007B610BF07BFE2E480BF0D5FE294B9B6B18
:105A80003B61284B9B6A03F40043002B0CD00BF0C6
:105A90006DFE396927480BF0C6FEBB68002B03D0AA
:105AA000204B4FF400429A621E4B9B6A03F48063C2
:105AB000002B06D01A237B610BF058FE1E480BF01A
:105AC000B2FE184B9B6A03F48073002B07D01B2394
:105AD0007B610BF04BFE19480BF0A5FE0CE0114B5F
:105AE0009B6A03F40053002B06D01C237B610BF050
:105AF0003DFE13480BF097FE0A4B9B6A094A43F49C
